{
  "contractName": "Voting",
  "abi": [
    {
      "inputs": [],
      "payable": false,
      "stateMutability": "nonpayable",
      "type": "constructor"
    },
    {
      "anonymous": false,
      "inputs": [
        {
          "indexed": false,
          "internalType": "uint32",
          "name": "_electionId",
          "type": "uint32"
        },
        {
          "indexed": false,
          "internalType": "uint32",
          "name": "_teamId",
          "type": "uint32"
        },
        {
          "indexed": false,
          "internalType": "uint32",
          "name": "teamCount",
          "type": "uint32"
        },
        {
          "indexed": false,
          "internalType": "uint32",
          "name": "totalCount",
          "type": "uint32"
        },
        {
          "indexed": false,
          "internalType": "uint256",
          "name": "castAt",
          "type": "uint256"
        }
      ],
      "name": "Cast",
      "type": "event"
    },
    {
      "anonymous": false,
      "inputs": [
        {
          "indexed": false,
          "internalType": "uint32",
          "name": "_electionId",
          "type": "uint32"
        },
        {
          "indexed": false,
          "internalType": "uint32",
          "name": "_winningTeamId",
          "type": "uint32"
        }
      ],
      "name": "ElectionEnded",
      "type": "event"
    },
    {
      "constant": true,
      "inputs": [],
      "name": "aspirantCount",
      "outputs": [
        {
          "internalType": "uint32",
          "name": "",
          "type": "uint32"
        }
      ],
      "payable": false,
      "stateMutability": "view",
      "type": "function"
    },
    {
      "constant": true,
      "inputs": [
        {
          "internalType": "uint32",
          "name": "",
          "type": "uint32"
        }
      ],
      "name": "aspirants",
      "outputs": [
        {
          "internalType": "uint32",
          "name": "aspirantId",
          "type": "uint32"
        },
        {
          "internalType": "string",
          "name": "name",
          "type": "string"
        }
      ],
      "payable": false,
      "stateMutability": "view",
      "type": "function"
    },
    {
      "constant": true,
      "inputs": [],
      "name": "creator",
      "outputs": [
        {
          "internalType": "address",
          "name": "",
          "type": "address"
        }
      ],
      "payable": false,
      "stateMutability": "view",
      "type": "function"
    },
    {
      "constant": true,
      "inputs": [],
      "name": "electionCount",
      "outputs": [
        {
          "internalType": "uint32",
          "name": "",
          "type": "uint32"
        }
      ],
      "payable": false,
      "stateMutability": "view",
      "type": "function"
    },
    {
      "constant": true,
      "inputs": [
        {
          "internalType": "uint32",
          "name": "",
          "type": "uint32"
        }
      ],
      "name": "elections",
      "outputs": [
        {
          "internalType": "uint32",
          "name": "electionId",
          "type": "uint32"
        },
        {
          "internalType": "string",
          "name": "name",
          "type": "string"
        },
        {
          "internalType": "uint32",
          "name": "start_timestamp",
          "type": "uint32"
        },
        {
          "internalType": "uint32",
          "name": "end_timestamp",
          "type": "uint32"
        },
        {
          "internalType": "uint32",
          "name": "voteCount",
          "type": "uint32"
        },
        {
          "internalType": "uint32",
          "name": "teamCount",
          "type": "uint32"
        },
        {
          "internalType": "uint32",
          "name": "tokenCount",
          "type": "uint32"
        },
        {
          "internalType": "bool",
          "name": "ended",
          "type": "bool"
        }
      ],
      "payable": false,
      "stateMutability": "view",
      "type": "function"
    },
    {
      "constant": false,
      "inputs": [
        {
          "internalType": "uint32",
          "name": "_electionId",
          "type": "uint32"
        },
        {
          "internalType": "string",
          "name": "_name",
          "type": "string"
        },
        {
          "internalType": "uint32",
          "name": "_start_timestamp",
          "type": "uint32"
        },
        {
          "internalType": "uint32",
          "name": "_end_timestamp",
          "type": "uint32"
        }
      ],
      "name": "setElection",
      "outputs": [],
      "payable": false,
      "stateMutability": "nonpayable",
      "type": "function"
    },
    {
      "constant": false,
      "inputs": [
        {
          "internalType": "uint32",
          "name": "_aspirantId",
          "type": "uint32"
        },
        {
          "internalType": "string",
          "name": "_name",
          "type": "string"
        }
      ],
      "name": "setAspirant",
      "outputs": [],
      "payable": false,
      "stateMutability": "nonpayable",
      "type": "function"
    },
    {
      "constant": false,
      "inputs": [
        {
          "internalType": "uint32",
          "name": "_electionId",
          "type": "uint32"
        },
        {
          "internalType": "uint32",
          "name": "_teamId",
          "type": "uint32"
        },
        {
          "internalType": "string",
          "name": "_name",
          "type": "string"
        },
        {
          "internalType": "uint32",
          "name": "_chairmanId",
          "type": "uint32"
        },
        {
          "internalType": "uint32",
          "name": "_secGenId",
          "type": "uint32"
        },
        {
          "internalType": "uint32",
          "name": "_treasurerId",
          "type": "uint32"
        }
      ],
      "name": "setTeam",
      "outputs": [],
      "payable": false,
      "stateMutability": "nonpayable",
      "type": "function"
    },
    {
      "constant": false,
      "inputs": [
        {
          "internalType": "uint32",
          "name": "_electionId",
          "type": "uint32"
        },
        {
          "internalType": "string",
          "name": "_token",
          "type": "string"
        }
      ],
      "name": "setVotingToken",
      "outputs": [],
      "payable": false,
      "stateMutability": "nonpayable",
      "type": "function"
    },
    {
      "constant": false,
      "inputs": [
        {
          "internalType": "uint32",
          "name": "_electionId",
          "type": "uint32"
        },
        {
          "internalType": "uint32",
          "name": "_teamId",
          "type": "uint32"
        },
        {
          "internalType": "string",
          "name": "_votingToken",
          "type": "string"
        }
      ],
      "name": "cast",
      "outputs": [],
      "payable": false,
      "stateMutability": "nonpayable",
      "type": "function"
    },
    {
      "constant": false,
      "inputs": [
        {
          "internalType": "uint32",
          "name": "_electionId",
          "type": "uint32"
        }
      ],
      "name": "endElection",
      "outputs": [],
      "payable": false,
      "stateMutability": "nonpayable",
      "type": "function"
    },
    {
      "constant": true,
      "inputs": [
        {
          "internalType": "uint32",
          "name": "_electionId",
          "type": "uint32"
        }
      ],
      "name": "getWinner",
      "outputs": [
        {
          "internalType": "uint32",
          "name": "_winningTeamId",
          "type": "uint32"
        }
      ],
      "payable": false,
      "stateMutability": "view",
      "type": "function"
    },
    {
      "constant": true,
      "inputs": [
        {
          "internalType": "uint32",
          "name": "_electionId",
          "type": "uint32"
        },
        {
          "internalType": "uint32",
          "name": "_teamId",
          "type": "uint32"
        }
      ],
      "name": "getTeam",
      "outputs": [
        {
          "internalType": "uint32",
          "name": "teamId",
          "type": "uint32"
        },
        {
          "internalType": "string",
          "name": "name",
          "type": "string"
        },
        {
          "internalType": "uint32",
          "name": "chairmanId",
          "type": "uint32"
        },
        {
          "internalType": "uint32",
          "name": "secGenId",
          "type": "uint32"
        },
        {
          "internalType": "uint32",
          "name": "treasurerId",
          "type": "uint32"
        },
        {
          "internalType": "uint32",
          "name": "votes",
          "type": "uint32"
        }
      ],
      "payable": false,
      "stateMutability": "view",
      "type": "function"
    },
    {
      "constant": true,
      "inputs": [
        {
          "internalType": "uint32",
          "name": "_electionId",
          "type": "uint32"
        },
        {
          "internalType": "string",
          "name": "_token",
          "type": "string"
        }
      ],
      "name": "getBallot",
      "outputs": [
        {
          "internalType": "uint32",
          "name": "teamId",
          "type": "uint32"
        },
        {
          "internalType": "bytes32",
          "name": "votingToken",
          "type": "bytes32"
        },
        {
          "internalType": "bool",
          "name": "voted",
          "type": "bool"
        }
      ],
      "payable": false,
      "stateMutability": "view",
      "type": "function"
    },
    {
      "constant": true,
      "inputs": [
        {
          "internalType": "uint32",
          "name": "_electionId",
          "type": "uint32"
        }
      ],
      "name": "getResults",
      "outputs": [
        {
          "components": [
            {
              "internalType": "uint32",
              "name": "teamId",
              "type": "uint32"
            },
            {
              "internalType": "string",
              "name": "name",
              "type": "string"
            },
            {
              "internalType": "uint32",
              "name": "chairmanId",
              "type": "uint32"
            },
            {
              "internalType": "uint32",
              "name": "secGenId",
              "type": "uint32"
            },
            {
              "internalType": "uint32",
              "name": "treasurerId",
              "type": "uint32"
            },
            {
              "internalType": "uint32",
              "name": "votes",
              "type": "uint32"
            }
          ],
          "internalType": "struct Voting.Team[]",
          "name": "",
          "type": "tuple[]"
        }
      ],
      "payable": false,
      "stateMutability": "view",
      "type": "function"
    }
  ],
  "bytecode": "0x608060405260008060146101000a81548163ffffffff021916908363ffffffff16021790555060008060186101000a81548163ffffffff021916908363ffffffff16021790555034801561005257600080fd5b50336000806101000a81548173ffffffffffffffffffffffffffffffffffffffff021916908373ffffffffffffffffffffffffffffffffffffffff160217905550613d8f806100a26000396000f3fe608060405234801561001057600080fd5b50600436106100f45760003560e01c80638827e05a11610097578063cdbf701311610066578063cdbf7013146102a4578063e368a147146102d6578063ed2d16e0146102f2578063fb828cdc1461030e576100f4565b80638827e05a14610232578063997d28301461024e578063a87f7bb71461026c578063abf45c1014610288576100f4565b80631a806ae6116100d35780631a806ae61461017c5780632c751d301461019a5780632c810428146101d1578063477398aa14610202576100f4565b8062a3ddea146100f957806302d05d3f146101295780631103204514610147575b600080fd5b610113600480360361010e9190810190612e95565b61032a565b60405161012091906137a7565b60405180910390f35b6101316106d0565b60405161013e919061378c565b60405180910390f35b610161600480360361015c9190810190612f8d565b6106f5565b60405161017396959493929190613a4d565b60405180910390f35b610184610a59565b60405161019191906139cb565b60405180910390f35b6101b460048036036101af9190810190612e95565b610a6f565b6040516101c8989796959493929190613ab5565b60405180910390f35b6101eb60048036036101e69190810190612e95565b610bbc565b6040516101f9929190613a1d565b60405180910390f35b61021c60048036036102179190810190612e95565b610c88565b60405161022991906139cb565b60405180910390f35b61024c60048036036102479190810190612e95565b610f36565b005b6102566111fb565b60405161026391906139cb565b60405180910390f35b61028660048036036102819190810190612ebe565b611211565b005b6102a2600480360361029d9190810190613030565b6114d3565b005b6102be60048036036102b99190810190612ebe565b611ca4565b6040516102cd939291906139e6565b60405180910390f35b6102f060048036036102eb9190810190612fc9565b611ecb565b005b61030c60048036036103079190810190612f12565b6124bd565b005b61032860048036036103239190810190612ebe565b612932565b005b60608160008163ffffffff161415610377576040517f08c379a000000000000000000000000000000000000000000000000000000000815260040161036e906138ab565b60405180910390fd5b828063ffffffff16600160008363ffffffff1663ffffffff16815260200190815260200160002060000160009054906101000a900463ffffffff1663ffffffff16146103f8576040517f08c379a00000000000000000000000000000000000000000000000000000000081526004016103ef9061392b565b60405180910390fd5b6060600160008663ffffffff1663ffffffff1681526020019081526020016000206003018054905060405190808252806020026020018201604052801561045957816020015b610446612b50565b81526020019060019003908161043e5790505b509050600080600090505b600160008863ffffffff1663ffffffff168152602001908152602001600020600301805490508163ffffffff1610156106c657600160008863ffffffff1663ffffffff1681526020019081526020016000206003018163ffffffff16815481106104ca57fe5b90600052602060002090600891828204019190066004029054906101000a900463ffffffff169150600160008863ffffffff1663ffffffff16815260200190815260200160002060040160008363ffffffff1663ffffffff1681526020019081526020016000206040518060c00160405290816000820160009054906101000a900463ffffffff1663ffffffff1663ffffffff168152602001600182018054600181600116156101000203166002900480601f0160208091040260200160405190810160405280929190818152602001828054600181600116156101000203166002900480156105fb5780601f106105d0576101008083540402835291602001916105fb565b820191906000526020600020905b8154815290600101906020018083116105de57829003601f168201915b505050505081526020016002820160009054906101000a900463ffffffff1663ffffffff1663ffffffff1681526020016002820160049054906101000a900463ffffffff1663ffffffff1663ffffffff1681526020016002820160089054906101000a900463ffffffff1663ffffffff1663ffffffff16815260200160028201600c9054906101000a900463ffffffff1663ffffffff1663ffffffff1681525050838263ffffffff16815181106106ae57fe5b60200260200101819052508080600101915050610464565b5050505050919050565b6000809054906101000a900473ffffffffffffffffffffffffffffffffffffffff1681565b600060606000806000808760008163ffffffff16141561074a576040517f08c379a0000000000000000000000000000000000000000000000000000000008152600401610741906138ab565b60405180910390fd5b888063ffffffff16600160008363ffffffff1663ffffffff16815260200190815260200160002060000160009054906101000a900463ffffffff1663ffffffff16146107cb576040517f08c379a00000000000000000000000000000000000000000000000000000000081526004016107c29061392b565b60405180910390fd5b8863ffffffff16600160008c63ffffffff1663ffffffff16815260200190815260200160002060040160008b63ffffffff1663ffffffff16815260200190815260200160002060000160009054906101000a900463ffffffff1663ffffffff161461086b576040517f08c379a00000000000000000000000000000000000000000000000000000000081526004016108629061380b565b60405180910390fd5b610873612ba4565b600160008c63ffffffff1663ffffffff16815260200190815260200160002060040160008b63ffffffff1663ffffffff1681526020019081526020016000206040518060c00160405290816000820160009054906101000a900463ffffffff1663ffffffff1663ffffffff168152602001600182018054600181600116156101000203166002900480601f01602080910402602001604051908101604052809291908181526020018280546001816001161561010002031660029004801561097c5780601f106109515761010080835404028352916020019161097c565b820191906000526020600020905b81548152906001019060200180831161095f57829003601f168201915b505050505081526020016002820160009054906101000a900463ffffffff1663ffffffff1663ffffffff1681526020016002820160049054906101000a900463ffffffff1663ffffffff1663ffffffff1681526020016002820160089054906101000a900463ffffffff1663ffffffff1663ffffffff16815260200160028201600c9054906101000a900463ffffffff1663ffffffff1663ffffffff16815250509050806000015181602001518260400151836060015184608001518560a001518494509850985098509850985098505050509295509295509295565b600060189054906101000a900463ffffffff1681565b60016020528060005260406000206000915090508060000160009054906101000a900463ffffffff1690806001018054600181600116156101000203166002900480601f016020809104026020016040519081016040528092919081815260200182805460018160011615610100020316600290048015610b315780601f10610b0657610100808354040283529160200191610b31565b820191906000526020600020905b815481529060010190602001808311610b1457829003601f168201915b5050505050908060020160009054906101000a900463ffffffff16908060020160049054906101000a900463ffffffff16908060020160089054906101000a900463ffffffff169080600201600c9054906101000a900463ffffffff16908060020160109054906101000a900463ffffffff16908060020160149054906101000a900460ff16905088565b60026020528060005260406000206000915090508060000160009054906101000a900463ffffffff1690806001018054600181600116156101000203166002900480601f016020809104026020016040519081016040528092919081815260200182805460018160011615610100020316600290048015610c7e5780601f10610c5357610100808354040283529160200191610c7e565b820191906000526020600020905b815481529060010190602001808311610c6157829003601f168201915b5050505050905082565b60008160008163ffffffff161415610cd5576040517f08c379a0000000000000000000000000000000000000000000000000000000008152600401610ccc906138ab565b60405180910390fd5b828063ffffffff16600160008363ffffffff1663ffffffff16815260200190815260200160002060000160009054906101000a900463ffffffff1663ffffffff1614610d56576040517f08c379a0000000000000000000000000000000000000000000000000000000008152600401610d4d9061392b565b60405180910390fd5b600160008563ffffffff1663ffffffff16815260200190815260200160002060020160149054906101000a900460ff16610dc5576040517f08c379a0000000000000000000000000000000000000000000000000000000008152600401610dbc906138cb565b60405180910390fd5b6000809050600080600090505b600160008863ffffffff1663ffffffff168152602001908152602001600020600301805490508163ffffffff161015610f2c57600160008863ffffffff1663ffffffff1681526020019081526020016000206003018163ffffffff1681548110610e3857fe5b90600052602060002090600891828204019190066004029054906101000a900463ffffffff1691508263ffffffff16600160008963ffffffff1663ffffffff16815260200190815260200160002060040160008463ffffffff1663ffffffff168152602001908152602001600020600201600c9054906101000a900463ffffffff1663ffffffff161115610f1f57600160008863ffffffff1663ffffffff16815260200190815260200160002060040160008363ffffffff1663ffffffff168152602001908152602001600020600201600c9054906101000a900463ffffffff1692508195505b8080600101915050610dd2565b5050505050919050565b6000809054906101000a900473ffffffffffffffffffffffffffffffffffffffff1673ffffffffffffffffffffffffffffffffffffffff163373ffffffffffffffffffffffffffffffffffffffff1614610fc5576040517f08c379a0000000000000000000000000000000000000000000000000000000008152600401610fbc906139ab565b60405180910390fd5b8060008163ffffffff161415611010576040517f08c379a0000000000000000000000000000000000000000000000000000000008152600401611007906138ab565b60405180910390fd5b818063ffffffff16600160008363ffffffff1663ffffffff16815260200190815260200160002060000160009054906101000a900463ffffffff1663ffffffff1614611091576040517f08c379a00000000000000000000000000000000000000000000000000000000081526004016110889061392b565b60405180910390fd5b600160008463ffffffff1663ffffffff16815260200190815260200160002060020160049054906101000a900463ffffffff1663ffffffff16421161110b576040517f08c379a0000000000000000000000000000000000000000000000000000000008152600401611102906138cb565b60405180910390fd5b600160008463ffffffff1663ffffffff16815260200190815260200160002060020160149054906101000a900460ff161561117b576040517f08c379a00000000000000000000000000000000000000000000000000000000081526004016111729061384b565b60405180910390fd5b60018060008563ffffffff1663ffffffff16815260200190815260200160002060020160146101000a81548160ff0219169083151502179055507f814583974cd8bb42c79296c10843297cb845a91a2b36a782f9d7c5b6180dd769836111e085610c88565b6040516111ee929190613b3a565b60405180910390a1505050565b600060149054906101000a900463ffffffff1681565b6000809054906101000a900473ffffffffffffffffffffffffffffffffffffffff1673ffffffffffffffffffffffffffffffffffffffff163373ffffffffffffffffffffffffffffffffffffffff16146112a0576040517f08c379a0000000000000000000000000000000000000000000000000000000008152600401611297906139ab565b60405180910390fd5b8160008163ffffffff1614156112eb576040517f08c379a00000000000000000000000000000000000000000000000000000000081526004016112e2906138ab565b60405180910390fd5b6000826040516020016112fe91906137c9565b60405160208183030381529060405280519060200120905080600160008663ffffffff1663ffffffff168152602001908152602001600020600501600083815260200190815260200160002060010154141561138f576040517f08c379a00000000000000000000000000000000000000000000000000000000081526004016113869061394b565b60405180910390fd5b6000600160008663ffffffff1663ffffffff16815260200190815260200160002060020160109054906101000a900463ffffffff16905060405180606001604052808263ffffffff16815260200183815260200160001515815250600160008763ffffffff1663ffffffff168152602001908152602001600020600501600084815260200190815260200160002060008201518160000160006101000a81548163ffffffff021916908363ffffffff1602179055506020820151816001015560408201518160020160006101000a81548160ff021916908315150217905550905050600160008663ffffffff1663ffffffff168152602001908152602001600020600201601081819054906101000a900463ffffffff168092919060010191906101000a81548163ffffffff021916908363ffffffff160217905550505050505050565b6000809054906101000a900473ffffffffffffffffffffffffffffffffffffffff1673ffffffffffffffffffffffffffffffffffffffff163373ffffffffffffffffffffffffffffffffffffffff1614611562576040517f08c379a0000000000000000000000000000000000000000000000000000000008152600401611559906139ab565b60405180910390fd5b8560008163ffffffff1614156115ad576040517f08c379a00000000000000000000000000000000000000000000000000000000081526004016115a4906138ab565b60405180910390fd5b868063ffffffff16600160008363ffffffff1663ffffffff16815260200190815260200160002060000160009054906101000a900463ffffffff1663ffffffff161461162e576040517f08c379a00000000000000000000000000000000000000000000000000000000081526004016116259061392b565b60405180910390fd5b8660008163ffffffff161415611679576040517f08c379a0000000000000000000000000000000000000000000000000000000008152600401611670906138ab565b60405180910390fd5b6000429050600160008b63ffffffff1663ffffffff16815260200190815260200160002060020160009054906101000a900463ffffffff1663ffffffff1681106116f8576040517f08c379a00000000000000000000000000000000000000000000000000000000081526004016116ef9061382b565b60405180910390fd5b8663ffffffff16600260008963ffffffff1663ffffffff16815260200190815260200160002060000160009054906101000a900463ffffffff1663ffffffff1614611778576040517f08c379a000000000000000000000000000000000000000000000000000000000815260040161176f906137eb565b60405180910390fd5b8563ffffffff16600260008863ffffffff1663ffffffff16815260200190815260200160002060000160009054906101000a900463ffffffff1663ffffffff16146117f8576040517f08c379a00000000000000000000000000000000000000000000000000000000081526004016117ef9061398b565b60405180910390fd5b8463ffffffff16600260008763ffffffff1663ffffffff16815260200190815260200160002060000160009054906101000a900463ffffffff1663ffffffff1614611878576040517f08c379a000000000000000000000000000000000000000000000000000000000815260040161186f9061390b565b60405180910390fd5b8863ffffffff16600160008c63ffffffff1663ffffffff16815260200190815260200160002060040160008b63ffffffff1663ffffffff16815260200190815260200160002060000160009054906101000a900463ffffffff1663ffffffff161415611a5d5787600160008c63ffffffff1663ffffffff16815260200190815260200160002060040160008b63ffffffff1663ffffffff1681526020019081526020016000206001019080519060200190611934929190612bf8565b5086600160008c63ffffffff1663ffffffff16815260200190815260200160002060040160008b63ffffffff1663ffffffff16815260200190815260200160002060020160006101000a81548163ffffffff021916908363ffffffff16021790555085600160008c63ffffffff1663ffffffff16815260200190815260200160002060040160008b63ffffffff1663ffffffff16815260200190815260200160002060020160046101000a81548163ffffffff021916908363ffffffff16021790555084600160008c63ffffffff1663ffffffff16815260200190815260200160002060040160008b63ffffffff1663ffffffff16815260200190815260200160002060020160086101000a81548163ffffffff021916908363ffffffff160217905550611c98565b600160008b63ffffffff1663ffffffff16815260200190815260200160002060030189908060018154018082558091505090600182039060005260206000209060089182820401919006600402909192909190916101000a81548163ffffffff021916908363ffffffff160217905550506040518060c001604052808a63ffffffff1681526020018981526020018863ffffffff1681526020018763ffffffff1681526020018663ffffffff168152602001600063ffffffff16815250600160008c63ffffffff1663ffffffff16815260200190815260200160002060040160008b63ffffffff1663ffffffff16815260200190815260200160002060008201518160000160006101000a81548163ffffffff021916908363ffffffff1602179055506020820151816001019080519060200190611b9c929190612c78565b5060408201518160020160006101000a81548163ffffffff021916908363ffffffff16021790555060608201518160020160046101000a81548163ffffffff021916908363ffffffff16021790555060808201518160020160086101000a81548163ffffffff021916908363ffffffff16021790555060a082015181600201600c6101000a81548163ffffffff021916908363ffffffff160217905550905050600160008b63ffffffff1663ffffffff168152602001908152602001600020600201600c81819054906101000a900463ffffffff168092919060010191906101000a81548163ffffffff021916908363ffffffff160217905550505b50505050505050505050565b60008060008460008163ffffffff161415611cf4576040517f08c379a0000000000000000000000000000000000000000000000000000000008152600401611ceb906138ab565b60405180910390fd5b858063ffffffff16600160008363ffffffff1663ffffffff16815260200190815260200160002060000160009054906101000a900463ffffffff1663ffffffff1614611d75576040517f08c379a0000000000000000000000000000000000000000000000000000000008152600401611d6c9061392b565b60405180910390fd5b600086604051602001611d8891906137c9565b60405160208183030381529060405280519060200120905080600160008a63ffffffff1663ffffffff16815260200190815260200160002060050160008381526020019081526020016000206001015414611e18576040517f08c379a0000000000000000000000000000000000000000000000000000000008152600401611e0f9061386b565b60405180910390fd5b611e20612cf8565b600160008a63ffffffff1663ffffffff16815260200190815260200160002060050160008381526020019081526020016000206040518060600160405290816000820160009054906101000a900463ffffffff1663ffffffff1663ffffffff168152602001600182015481526020016002820160009054906101000a900460ff1615151515815250509050806000015181602001518260400151965096509650505050509250925092565b8260008163ffffffff161415611f16576040517f08c379a0000000000000000000000000000000000000000000000000000000008152600401611f0d906138ab565b60405180910390fd5b8260008163ffffffff161415611f61576040517f08c379a0000000000000000000000000000000000000000000000000000000008152600401611f58906138ab565b60405180910390fd5b848063ffffffff16600160008363ffffffff1663ffffffff16815260200190815260200160002060000160009054906101000a900463ffffffff1663ffffffff1614611fe2576040517f08c379a0000000000000000000000000000000000000000000000000000000008152600401611fd99061392b565b60405180910390fd5b611fec8685611211565b6000429050600160008863ffffffff1663ffffffff16815260200190815260200160002060020160009054906101000a900463ffffffff1663ffffffff1681101580156120715750600160008863ffffffff1663ffffffff16815260200190815260200160002060020160049054906101000a900463ffffffff1663ffffffff168111155b6120b0576040517f08c379a00000000000000000000000000000000000000000000000000000000081526004016120a79061388b565b60405180910390fd5b6000856040516020016120c391906137c9565b60405160208183030381529060405280519060200120905080600160008a63ffffffff1663ffffffff16815260200190815260200160002060050160008381526020019081526020016000206001015414612153576040517f08c379a000000000000000000000000000000000000000000000000000000000815260040161214a906138eb565b60405180910390fd5b600160008963ffffffff1663ffffffff168152602001908152602001600020600501600082815260200190815260200160002060020160009054906101000a900460ff16156121d7576040517f08c379a00000000000000000000000000000000000000000000000000000000081526004016121ce9061396b565b60405180910390fd5b8663ffffffff16600160008a63ffffffff1663ffffffff16815260200190815260200160002060040160008963ffffffff1663ffffffff16815260200190815260200160002060000160009054906101000a900463ffffffff1663ffffffff1614612277576040517f08c379a000000000000000000000000000000000000000000000000000000000815260040161226e9061380b565b60405180910390fd5b86600160008a63ffffffff1663ffffffff168152602001908152602001600020600501600083815260200190815260200160002060000160006101000a81548163ffffffff021916908363ffffffff16021790555060018060008a63ffffffff1663ffffffff168152602001908152602001600020600501600083815260200190815260200160002060020160006101000a81548160ff021916908315150217905550600160008963ffffffff1663ffffffff16815260200190815260200160002060040160008863ffffffff1663ffffffff168152602001908152602001600020600201600c81819054906101000a900463ffffffff168092919060010191906101000a81548163ffffffff021916908363ffffffff16021790555050600160008963ffffffff1663ffffffff168152602001908152602001600020600201600881819054906101000a900463ffffffff168092919060010191906101000a81548163ffffffff021916908363ffffffff160217905550507f56877a50c494a5518ee58353ed796f3f676871bfe798b04ada4ee4ab548a81928888600160008c63ffffffff1663ffffffff16815260200190815260200160002060040160008b63ffffffff1663ffffffff168152602001908152602001600020600201600c9054906101000a900463ffffffff16600160008d63ffffffff1663ffffffff16815260200190815260200160002060020160089054906101000a900463ffffffff16866040516124ab959493929190613b63565b60405180910390a15050505050505050565b6000809054906101000a900473ffffffffffffffffffffffffffffffffffffffff1673ffffffffffffffffffffffffffffffffffffffff163373ffffffffffffffffffffffffffffffffffffffff161461254c576040517f08c379a0000000000000000000000000000000000000000000000000000000008152600401612543906139ab565b60405180910390fd5b8360008163ffffffff161415612597576040517f08c379a000000000000000000000000000000000000000000000000000000000815260040161258e906138ab565b60405180910390fd5b60004290508563ffffffff16600160008863ffffffff1663ffffffff16815260200190815260200160002060000160009054906101000a900463ffffffff1663ffffffff16141561271a57600160008763ffffffff1663ffffffff16815260200190815260200160002060020160009054906101000a900463ffffffff1663ffffffff16811061265c576040517f08c379a00000000000000000000000000000000000000000000000000000000081526004016126539061382b565b60405180910390fd5b84600160008863ffffffff1663ffffffff1681526020019081526020016000206001019080519060200190612692929190612bf8565b5083600160008863ffffffff1663ffffffff16815260200190815260200160002060020160006101000a81548163ffffffff021916908363ffffffff16021790555082600160008863ffffffff1663ffffffff16815260200190815260200160002060020160046101000a81548163ffffffff021916908363ffffffff16021790555061292a565b60606040518061012001604052808863ffffffff1681526020018781526020018663ffffffff1681526020018563ffffffff168152602001600063ffffffff168152602001600063ffffffff168152602001600063ffffffff16815260200160001515815260200182815250600160008963ffffffff1663ffffffff16815260200190815260200160002060008201518160000160006101000a81548163ffffffff021916908363ffffffff16021790555060208201518160010190805190602001906127e8929190612c78565b5060408201518160020160006101000a81548163ffffffff021916908363ffffffff16021790555060608201518160020160046101000a81548163ffffffff021916908363ffffffff16021790555060808201518160020160086101000a81548163ffffffff021916908363ffffffff16021790555060a082015181600201600c6101000a81548163ffffffff021916908363ffffffff16021790555060c08201518160020160106101000a81548163ffffffff021916908363ffffffff16021790555060e08201518160020160146101000a81548160ff0219169083151502179055506101008201518160030190805190602001906128e9929190612d24565b509050506000601481819054906101000a900463ffffffff168092919060010191906101000a81548163ffffffff021916908363ffffffff16021790555050505b505050505050565b6000809054906101000a900473ffffffffffffffffffffffffffffffffffffffff1673ffffffffffffffffffffffffffffffffffffffff163373ffffffffffffffffffffffffffffffffffffffff16146129c1576040517f08c379a00000000000000000000000000000000000000000000000000000000081526004016129b8906139ab565b60405180910390fd5b8160008163ffffffff161415612a0c576040517f08c379a0000000000000000000000000000000000000000000000000000000008152600401612a03906138ab565b60405180910390fd5b8263ffffffff16600260008563ffffffff1663ffffffff16815260200190815260200160002060000160009054906101000a900463ffffffff1663ffffffff161415612a8e5781600260008563ffffffff1663ffffffff1681526020019081526020016000206001019080519060200190612a88929190612bf8565b50612b4b565b60405180604001604052808463ffffffff16815260200183815250600260008563ffffffff1663ffffffff16815260200190815260200160002060008201518160000160006101000a81548163ffffffff021916908363ffffffff1602179055506020820151816001019080519060200190612b0b929190612c78565b509050506000601881819054906101000a900463ffffffff168092919060010191906101000a81548163ffffffff021916908363ffffffff160217905550505b505050565b6040518060c00160405280600063ffffffff16815260200160608152602001600063ffffffff168152602001600063ffffffff168152602001600063ffffffff168152602001600063ffffffff1681525090565b6040518060c00160405280600063ffffffff16815260200160608152602001600063ffffffff168152602001600063ffffffff168152602001600063ffffffff168152602001600063ffffffff1681525090565b828054600181600116156101000203166002900490600052602060002090601f016020900481019282601f10612c3957805160ff1916838001178555612c67565b82800160010185558215612c67579182015b82811115612c66578251825591602001919060010190612c4b565b5b509050612c749190612dd4565b5090565b828054600181600116156101000203166002900490600052602060002090601f016020900481019282601f10612cb957805160ff1916838001178555612ce7565b82800160010185558215612ce7579182015b82811115612ce6578251825591602001919060010190612ccb565b5b509050612cf49190612dd4565b5090565b6040518060600160405280600063ffffffff168152602001600080191681526020016000151581525090565b82805482825590600052602060002090600701600890048101928215612dc35791602002820160005b83821115612d9157835183826101000a81548163ffffffff021916908363ffffffff1602179055509260200192600401602081600301049283019260010302612d4d565b8015612dc15782816101000a81549063ffffffff0219169055600401602081600301049283019260010302612d91565b505b509050612dd09190612df9565b5090565b612df691905b80821115612df2576000816000905550600101612dda565b5090565b90565b612e2991905b80821115612e2557600081816101000a81549063ffffffff021916905550600101612dff565b5090565b90565b600082601f830112612e3d57600080fd5b8135612e50612e4b82613be3565b613bb6565b91508082526020830160208301858383011115612e6c57600080fd5b612e77838284613ce2565b50505092915050565b600081359050612e8f81613d35565b92915050565b600060208284031215612ea757600080fd5b6000612eb584828501612e80565b91505092915050565b60008060408385031215612ed157600080fd5b6000612edf85828601612e80565b925050602083013567ffffffffffffffff811115612efc57600080fd5b612f0885828601612e2c565b9150509250929050565b60008060008060808587031215612f2857600080fd5b6000612f3687828801612e80565b945050602085013567ffffffffffffffff811115612f5357600080fd5b612f5f87828801612e2c565b9350506040612f7087828801612e80565b9250506060612f8187828801612e80565b91505092959194509250565b60008060408385031215612fa057600080fd5b6000612fae85828601612e80565b9250506020612fbf85828601612e80565b9150509250929050565b600080600060608486031215612fde57600080fd5b6000612fec86828701612e80565b9350506020612ffd86828701612e80565b925050604084013567ffffffffffffffff81111561301a57600080fd5b61302686828701612e2c565b9150509250925092565b60008060008060008060c0878903121561304957600080fd5b600061305789828a01612e80565b965050602061306889828a01612e80565b955050604087013567ffffffffffffffff81111561308557600080fd5b61309189828a01612e2c565b94505060606130a289828a01612e80565b93505060806130b389828a01612e80565b92505060a06130c489828a01612e80565b9150509295509295509295565b60006130dd83836136d6565b905092915050565b6130ee81613c80565b82525050565b60006130ff82613c1f565b6131098185613c4d565b93508360208202850161311b85613c0f565b8060005b85811015613157578484038952815161313885826130d1565b945061314383613c40565b925060208a0199505060018101905061311f565b50829750879550505050505092915050565b61317281613c92565b82525050565b61318181613c9e565b82525050565b600061319282613c35565b61319c8185613c6f565b93506131ac818560208601613cf1565b6131b581613d24565b840191505092915050565b60006131cb82613c2a565b6131d58185613c5e565b93506131e5818560208601613cf1565b6131ee81613d24565b840191505092915050565b600061320482613c2a565b61320e8185613c6f565b935061321e818560208601613cf1565b61322781613d24565b840191505092915050565b600061323f602983613c6f565b91507f43686169726d616e494420646f6573206e6f7420657869737420696e206f757260008301527f207265636f7264732e00000000000000000000000000000000000000000000006020830152604082019050919050565b60006132a5601483613c6f565b91507f5465616d20646f6573206e6f742065786973742e0000000000000000000000006000830152602082019050919050565b60006132e5602583613c6f565b91507f456c656374696f6e20686173206569746865722073746172746564206f72206560008301527f6e6465642e0000000000000000000000000000000000000000000000000000006020830152604082019050919050565b600061334b602483613c6f565b91507f656e64456c656374696f6e2068617320616c7265616479206265656e2063616c60008301527f6c65642e000000000000000000000000000000000000000000000000000000006020830152604082019050919050565b60006133b1601c83613c6f565b91507f566f74696e6720546f6b656e20646f6573206e6f742065786973742e000000006000830152602082019050919050565b60006133f1601b83613c6f565b91507f4e6f74207468652074696d6520746f206361737420766f7465732e00000000006000830152602082019050919050565b6000613431601a83613c6f565b91507f4944732073686f756c64206e6f7420657175616c207a65726f2e0000000000006000830152602082019050919050565b6000613471601283613c6f565b91507f456c656374696f6e206e6f74206f7665722e00000000000000000000000000006000830152602082019050919050565b60006134b1601c83613c6f565b91507f566f74696e6720746f6b656e20646f6573206e6f742065786973742e000000006000830152602082019050919050565b60006134f1602a83613c6f565b91507f547265617375726572494420646f6573206e6f7420657869737420696e206f7560008301527f72207265636f7264732e000000000000000000000000000000000000000000006020830152604082019050919050565b6000613557601883613c6f565b91507f456c656374696f6e20646f6573206e6f742065786973742e00000000000000006000830152602082019050919050565b6000613597601b83613c6f565b91507f566f74696e6720746f6b656e20616c72656164792061646465642e00000000006000830152602082019050919050565b60006135d7602283613c6f565b91507f566f7465722068617320616c7265616479206361737420746865697220766f7460008301527f652e0000000000000000000000000000000000000000000000000000000000006020830152604082019050919050565b600061363d603383613c6f565b91507f5365637265746172792047656e6572616c20494420646f6573206e6f7420657860008301527f69737420696e206f7572207265636f7264732e000000000000000000000000006020830152604082019050919050565b60006136a3601f83613c6f565b91507f4f6e6c79207468652043726561746f722063616e2063616c6c20746869732e006000830152602082019050919050565b600060c0830160008301516136ee600086018261376e565b506020830151848203602086015261370682826131c0565b915050604083015161371b604086018261376e565b50606083015161372e606086018261376e565b506080830151613741608086018261376e565b5060a083015161375460a086018261376e565b508091505092915050565b61376881613cc8565b82525050565b61377781613cd2565b82525050565b61378681613cd2565b82525050565b60006020820190506137a160008301846130e5565b92915050565b600060208201905081810360008301526137c181846130f4565b905092915050565b600060208201905081810360008301526137e38184613187565b905092915050565b6000602082019050818103600083015261380481613232565b9050919050565b6000602082019050818103600083015261382481613298565b9050919050565b60006020820190508181036000830152613844816132d8565b9050919050565b600060208201905081810360008301526138648161333e565b9050919050565b60006020820190508181036000830152613884816133a4565b9050919050565b600060208201905081810360008301526138a4816133e4565b9050919050565b600060208201905081810360008301526138c481613424565b9050919050565b600060208201905081810360008301526138e481613464565b9050919050565b60006020820190508181036000830152613904816134a4565b9050919050565b60006020820190508181036000830152613924816134e4565b9050919050565b600060208201905081810360008301526139448161354a565b9050919050565b600060208201905081810360008301526139648161358a565b9050919050565b60006020820190508181036000830152613984816135ca565b9050919050565b600060208201905081810360008301526139a481613630565b9050919050565b600060208201905081810360008301526139c481613696565b9050919050565b60006020820190506139e0600083018461377d565b92915050565b60006060820190506139fb600083018661377d565b613a086020830185613178565b613a156040830184613169565b949350505050565b6000604082019050613a32600083018561377d565b8181036020830152613a4481846131f9565b90509392505050565b600060c082019050613a62600083018961377d565b8181036020830152613a748188613187565b9050613a83604083018761377d565b613a90606083018661377d565b613a9d608083018561377d565b613aaa60a083018461377d565b979650505050505050565b600061010082019050613acb600083018b61377d565b8181036020830152613add818a6131f9565b9050613aec604083018961377d565b613af9606083018861377d565b613b06608083018761377d565b613b1360a083018661377d565b613b2060c083018561377d565b613b2d60e0830184613169565b9998505050505050505050565b6000604082019050613b4f600083018561377d565b613b5c602083018461377d565b9392505050565b600060a082019050613b78600083018861377d565b613b85602083018761377d565b613b92604083018661377d565b613b9f606083018561377d565b613bac608083018461375f565b9695505050505050565b6000604051905081810181811067ffffffffffffffff82111715613bd957600080fd5b8060405250919050565b600067ffffffffffffffff821115613bfa57600080fd5b601f19601f8301169050602081019050919050565b6000819050602082019050919050565b600081519050919050565b600081519050919050565b600081519050919050565b6000602082019050919050565b600082825260208201905092915050565b600082825260208201905092915050565b600082825260208201905092915050565b6000613c8b82613ca8565b9050919050565b60008115159050919050565b6000819050919050565b600073ffffffffffffffffffffffffffffffffffffffff82169050919050565b6000819050919050565b600063ffffffff82169050919050565b82818337600083830152505050565b60005b83811015613d0f578082015181840152602081019050613cf4565b83811115613d1e576000848401525b50505050565b6000601f19601f8301169050919050565b613d3e81613cd2565b8114613d4957600080fd5b5056fea365627a7a723158206c1495f1712c02714979b8f71f837cd11bb99d7111811b652116eca8ed5353006c6578706572696d656e74616cf564736f6c63430005100040",
  "source": "pragma solidity >=0.4.21 <0.7.0;\npragma experimental ABIEncoderV2;\n\ncontract Voting {\n    address public creator;\n    uint32 public electionCount = 0;\n    uint32 public aspirantCount = 0;\n\n    struct Election {\n        uint32 electionId;\n        string name;\n        uint32 start_timestamp;\n        uint32 end_timestamp;\n        uint32 voteCount;\n        uint32 teamCount;\n        uint32 tokenCount;\n        bool ended;\n        uint32[] teamIds; // apparently, you can't loop over mappings or their keys\n        mapping(uint32 => Team) teams;\n        mapping(bytes32 => Ballot) votingTokens;\n    }\n\n    struct Aspirant {\n        uint32 aspirantId;\n        string name;\n    }\n\n    struct Team {\n        uint32 teamId;\n        string name;\n        uint32 chairmanId;\n        uint32 secGenId;\n        uint32 treasurerId;\n        uint32 votes;\n    }\n\n    struct Ballot {\n        uint32 teamId;\n        bytes32 votingToken; // a hash of the actual voting token\n        bool cast;\n    }\n\n    mapping(uint32 => Election) public elections;\n    mapping(uint32 => Aspirant) public aspirants;\n\n    event Cast(uint32 _electionId, uint32 _teamId, uint32 teamCount, uint32 totalCount, uint castAt);\n    event ElectionEnded(uint32 _electionId, uint32 _winningTeamId);\n\n    modifier onlyCreator() {\n        require(msg.sender == creator, \"Only the Creator can call this.\");\n        _;\n    }\n\n    modifier notZero(uint32 _n) {\n        require(_n != 0, \"IDs should not equal zero.\");\n        _;\n    }\n\n    modifier electionExists(uint32 _electionId) {\n        require(elections[_electionId].electionId == _electionId, \"Election does not exist.\");\n        _;\n    }\n\n\n    constructor() public {\n        creator = msg.sender;\n    }\n\n    function setElection(uint32 _electionId, string memory _name, uint32 _start_timestamp, uint32 _end_timestamp)\n    public\n    onlyCreator()\n    notZero(_electionId)\n    {\n        uint time = now;\n        if (elections[_electionId].electionId == _electionId) {\n            require(time < elections[_electionId].start_timestamp, \"Election has either started or ended.\");\n            elections[_electionId].name = _name;\n            elections[_electionId].start_timestamp = _start_timestamp;\n            elections[_electionId].end_timestamp = _end_timestamp;\n        } else {\n            uint32[] memory teamIds;\n            elections[_electionId] = Election(_electionId, _name, _start_timestamp, _end_timestamp, 0, 0, 0, false, teamIds);\n            electionCount++;\n        }\n    }\n\n    function setAspirant(uint32 _aspirantId, string memory _name)\n    public\n    onlyCreator()\n    notZero(_aspirantId)\n    {\n        if (aspirants[_aspirantId].aspirantId == _aspirantId) {\n            aspirants[_aspirantId].name = _name;\n        } else {\n            aspirants[_aspirantId] = Aspirant(_aspirantId, _name);\n            aspirantCount++;\n        }\n    }\n\n    function setTeam(uint32 _electionId, uint32 _teamId, string memory _name, uint32 _chairmanId, uint32 _secGenId, uint32 _treasurerId)\n    public\n    onlyCreator()\n    notZero(_electionId)\n    electionExists(_electionId)\n    notZero(_teamId)\n    {\n        uint time = now;\n        require(time < elections[_electionId].start_timestamp, \"Election has either started or ended.\");\n        require(aspirants[_chairmanId].aspirantId == _chairmanId, \"ChairmanID does not exist in our records.\");\n        require(aspirants[_secGenId].aspirantId == _secGenId, \"Secretary General ID does not exist in our records.\");\n        require(aspirants[_treasurerId].aspirantId == _treasurerId, \"TreasurerID does not exist in our records.\");\n        if (elections[_electionId].teams[_teamId].teamId == _teamId) {\n            elections[_electionId].teams[_teamId].name = _name;\n            elections[_electionId].teams[_teamId].chairmanId = _chairmanId;\n            elections[_electionId].teams[_teamId].secGenId = _secGenId;\n            elections[_electionId].teams[_teamId].treasurerId = _treasurerId;\n        } else {\n            elections[_electionId].teamIds.push(_teamId);\n            elections[_electionId].teams[_teamId] = Team(_teamId, _name, _chairmanId, _secGenId, _treasurerId, 0);\n            elections[_electionId].teamCount++;\n        }\n    }\n\n    function setVotingToken(uint32 _electionId, string memory _token)\n    public\n    onlyCreator()\n    notZero(_electionId)\n    {\n        bytes32 _hashedToken = keccak256(abi.encode(_token));\n        require(elections[_electionId].votingTokens[_hashedToken].votingToken != _hashedToken, \"Voting token already added.\");\n        uint32 tokenCount = elections[_electionId].tokenCount;\n        elections[_electionId].votingTokens[_hashedToken] = Ballot(tokenCount, _hashedToken, false);\n        elections[_electionId].tokenCount++;\n    }\n\n    function cast(uint32 _electionId, uint32 _teamId, string memory _votingToken)\n    public\n    notZero(_electionId)\n    notZero(_teamId)\n    electionExists(_electionId)\n    {\n        setVotingToken(_electionId, _votingToken);\n        uint time = now;\n        require(time >= elections[_electionId].start_timestamp && time <= elections[_electionId].end_timestamp, \"Not the time to cast votes.\");\n        bytes32 _hashedToken = keccak256(abi.encode(_votingToken));\n        require(elections[_electionId].votingTokens[_hashedToken].votingToken == _hashedToken, \"Voting token does not exist.\");\n        require(!elections[_electionId].votingTokens[_hashedToken].cast, \"Voter has already cast their vote.\");\n        require(elections[_electionId].teams[_teamId].teamId == _teamId, \"Team does not exist.\");\n\n        // register the vote\n        elections[_electionId].votingTokens[_hashedToken].teamId = _teamId;\n        elections[_electionId].votingTokens[_hashedToken].cast = true;\n        elections[_electionId].teams[_teamId].votes++;\n        elections[_electionId].voteCount++;\n        emit Cast(_electionId, _teamId, elections[_electionId].teams[_teamId].votes,  elections[_electionId].voteCount, time);\n    }\n\n    function endElection(uint32 _electionId)\n    public\n    onlyCreator()\n    notZero(_electionId)\n    electionExists(_electionId)\n    {\n        require(now > elections[_electionId].end_timestamp, \"Election not over.\");\n        require(!elections[_electionId].ended, \"endElection has already been called.\");\n        elections[_electionId].ended = true;\n        emit ElectionEnded(_electionId, getWinner(_electionId));\n    }\n\n    function getWinner(uint32 _electionId)\n    public\n    notZero(_electionId)\n    electionExists(_electionId)\n    view returns (uint32 _winningTeamId)\n    {\n        require(elections[_electionId].ended, \"Election not over.\");\n        uint32 winningVoteCount = 0;\n        uint32 _teamId;\n        for (uint32 _i = 0; _i < elections[_electionId].teamIds.length; _i++) {\n            _teamId = elections[_electionId].teamIds[_i];\n            if (elections[_electionId].teams[_teamId].votes > winningVoteCount) {\n                winningVoteCount = elections[_electionId].teams[_teamId].votes;\n                _winningTeamId = _teamId;\n            }\n        }\n    }\n\n    function getTeam(uint32 _electionId, uint32 _teamId)\n    public\n    notZero(_electionId)\n    electionExists(_electionId)\n    view returns (uint32 teamId, string memory name, uint32 chairmanId, uint32 secGenId, uint32 treasurerId, uint32 votes)\n    {\n        require(elections[_electionId].teams[_teamId].teamId == _teamId, \"Team does not exist.\");\n        Team memory t = elections[_electionId].teams[_teamId];\n        return (t.teamId, t.name, t.chairmanId, t.secGenId, t.treasurerId, t.votes);\n    }\n\n    function getBallot(uint32 _electionId, string memory _token)\n    public\n    notZero(_electionId)\n    electionExists(_electionId)\n    view returns (uint32 teamId, bytes32 votingToken, bool voted)\n    {\n        bytes32 _hashedToken = keccak256(abi.encode(_token));\n        require(elections[_electionId].votingTokens[_hashedToken].votingToken == _hashedToken, \"Voting Token does not exist.\");\n        Ballot memory b = elections[_electionId].votingTokens[_hashedToken];\n        return (b.teamId, b.votingToken, b.cast);\n    }\n\n    function getResults(uint32 _electionId)\n    public\n    notZero(_electionId)\n    electionExists(_electionId)\n    view returns (Team[] memory)\n    {\n        Team[] memory teams = new Team[](elections[_electionId].teamIds.length);\n        uint32 _teamId;\n        for (uint32 _i = 0; _i < elections[_electionId].teamIds.length; _i++) {\n            _teamId = elections[_electionId].teamIds[_i];\n            teams[_i] = elections[_electionId].teams[_teamId];\n        }\n    }\n}\n",
  "sourcePath": "/home/stephen/Projects/voting-system-blockchain/contracts/Voting.sol",
  "compiler": {
    "name": "solc",
    "version": "0.5.16+commit.9c3226ce.Emscripten.clang"
  },
  "schemaVersion": "3.0.23",
  "updatedAt": "2020-05-11T11:24:11.926Z",
  "networkType": "ethereum",
  "devdoc": {
    "methods": {}
  },
  "userdoc": {
    "methods": {}
  }
}