{
  "contractName": "Voting",
  "abi": [
    {
      "inputs": [],
      "payable": false,
      "stateMutability": "nonpayable",
      "type": "constructor"
    },
    {
      "anonymous": false,
      "inputs": [
        {
          "indexed": false,
          "internalType": "uint256",
          "name": "_electionId",
          "type": "uint256"
        },
        {
          "indexed": false,
          "internalType": "uint256",
          "name": "_teamId",
          "type": "uint256"
        },
        {
          "indexed": false,
          "internalType": "uint256",
          "name": "teamCount",
          "type": "uint256"
        },
        {
          "indexed": false,
          "internalType": "uint256",
          "name": "totalCount",
          "type": "uint256"
        },
        {
          "indexed": false,
          "internalType": "uint256",
          "name": "castAt",
          "type": "uint256"
        }
      ],
      "name": "Cast",
      "type": "event"
    },
    {
      "anonymous": false,
      "inputs": [
        {
          "indexed": false,
          "internalType": "uint256",
          "name": "_electionId",
          "type": "uint256"
        },
        {
          "indexed": false,
          "internalType": "uint256",
          "name": "_winningTeamId",
          "type": "uint256"
        }
      ],
      "name": "ElectionEnded",
      "type": "event"
    },
    {
      "constant": true,
      "inputs": [],
      "name": "aspirantCount",
      "outputs": [
        {
          "internalType": "uint256",
          "name": "",
          "type": "uint256"
        }
      ],
      "payable": false,
      "stateMutability": "view",
      "type": "function"
    },
    {
      "constant": true,
      "inputs": [
        {
          "internalType": "uint256",
          "name": "",
          "type": "uint256"
        }
      ],
      "name": "aspirants",
      "outputs": [
        {
          "internalType": "uint256",
          "name": "aspirantId",
          "type": "uint256"
        },
        {
          "internalType": "string",
          "name": "name",
          "type": "string"
        },
        {
          "internalType": "uint256",
          "name": "addedAt",
          "type": "uint256"
        },
        {
          "internalType": "uint256",
          "name": "updatedAt",
          "type": "uint256"
        }
      ],
      "payable": false,
      "stateMutability": "view",
      "type": "function"
    },
    {
      "constant": true,
      "inputs": [],
      "name": "creator",
      "outputs": [
        {
          "internalType": "address",
          "name": "",
          "type": "address"
        }
      ],
      "payable": false,
      "stateMutability": "view",
      "type": "function"
    },
    {
      "constant": true,
      "inputs": [],
      "name": "electionCount",
      "outputs": [
        {
          "internalType": "uint256",
          "name": "",
          "type": "uint256"
        }
      ],
      "payable": false,
      "stateMutability": "view",
      "type": "function"
    },
    {
      "constant": true,
      "inputs": [
        {
          "internalType": "uint256",
          "name": "",
          "type": "uint256"
        }
      ],
      "name": "elections",
      "outputs": [
        {
          "internalType": "uint256",
          "name": "electionId",
          "type": "uint256"
        },
        {
          "internalType": "string",
          "name": "name",
          "type": "string"
        },
        {
          "internalType": "uint256",
          "name": "start_timestamp",
          "type": "uint256"
        },
        {
          "internalType": "uint256",
          "name": "end_timestamp",
          "type": "uint256"
        },
        {
          "internalType": "uint256",
          "name": "voteCount",
          "type": "uint256"
        },
        {
          "internalType": "uint256",
          "name": "teamCount",
          "type": "uint256"
        },
        {
          "internalType": "uint256",
          "name": "tokenCount",
          "type": "uint256"
        },
        {
          "internalType": "bool",
          "name": "ended",
          "type": "bool"
        },
        {
          "internalType": "uint256",
          "name": "addedAt",
          "type": "uint256"
        },
        {
          "internalType": "uint256",
          "name": "updatedAt",
          "type": "uint256"
        }
      ],
      "payable": false,
      "stateMutability": "view",
      "type": "function"
    },
    {
      "constant": false,
      "inputs": [
        {
          "internalType": "uint256",
          "name": "_electionId",
          "type": "uint256"
        },
        {
          "internalType": "string",
          "name": "_name",
          "type": "string"
        },
        {
          "internalType": "uint256",
          "name": "_start_timestamp",
          "type": "uint256"
        },
        {
          "internalType": "uint256",
          "name": "_end_timestamp",
          "type": "uint256"
        }
      ],
      "name": "setElection",
      "outputs": [],
      "payable": false,
      "stateMutability": "nonpayable",
      "type": "function"
    },
    {
      "constant": false,
      "inputs": [
        {
          "internalType": "uint256",
          "name": "_aspirantId",
          "type": "uint256"
        },
        {
          "internalType": "string",
          "name": "_name",
          "type": "string"
        }
      ],
      "name": "setAspirant",
      "outputs": [],
      "payable": false,
      "stateMutability": "nonpayable",
      "type": "function"
    },
    {
      "constant": false,
      "inputs": [
        {
          "internalType": "uint256",
          "name": "_electionId",
          "type": "uint256"
        },
        {
          "internalType": "uint256",
          "name": "_teamId",
          "type": "uint256"
        },
        {
          "internalType": "string",
          "name": "_name",
          "type": "string"
        },
        {
          "internalType": "uint256",
          "name": "_chairmanId",
          "type": "uint256"
        },
        {
          "internalType": "uint256",
          "name": "_secGenId",
          "type": "uint256"
        },
        {
          "internalType": "uint256",
          "name": "_treasurerId",
          "type": "uint256"
        }
      ],
      "name": "setTeam",
      "outputs": [],
      "payable": false,
      "stateMutability": "nonpayable",
      "type": "function"
    },
    {
      "constant": false,
      "inputs": [
        {
          "internalType": "uint256",
          "name": "_electionId",
          "type": "uint256"
        },
        {
          "internalType": "string",
          "name": "_token",
          "type": "string"
        }
      ],
      "name": "setVotingToken",
      "outputs": [],
      "payable": false,
      "stateMutability": "nonpayable",
      "type": "function"
    },
    {
      "constant": false,
      "inputs": [
        {
          "internalType": "uint256",
          "name": "_electionId",
          "type": "uint256"
        },
        {
          "internalType": "uint256",
          "name": "_teamId",
          "type": "uint256"
        },
        {
          "internalType": "string",
          "name": "_votingToken",
          "type": "string"
        }
      ],
      "name": "cast",
      "outputs": [],
      "payable": false,
      "stateMutability": "nonpayable",
      "type": "function"
    },
    {
      "constant": false,
      "inputs": [
        {
          "internalType": "uint256",
          "name": "_electionId",
          "type": "uint256"
        }
      ],
      "name": "endElection",
      "outputs": [],
      "payable": false,
      "stateMutability": "nonpayable",
      "type": "function"
    },
    {
      "constant": true,
      "inputs": [
        {
          "internalType": "uint256",
          "name": "_electionId",
          "type": "uint256"
        }
      ],
      "name": "getWinner",
      "outputs": [
        {
          "internalType": "uint256",
          "name": "_winningTeamId",
          "type": "uint256"
        }
      ],
      "payable": false,
      "stateMutability": "view",
      "type": "function"
    },
    {
      "constant": true,
      "inputs": [
        {
          "internalType": "uint256",
          "name": "_electionId",
          "type": "uint256"
        },
        {
          "internalType": "uint256",
          "name": "_teamId",
          "type": "uint256"
        }
      ],
      "name": "getTeam",
      "outputs": [
        {
          "internalType": "uint256",
          "name": "teamId",
          "type": "uint256"
        },
        {
          "internalType": "string",
          "name": "name",
          "type": "string"
        },
        {
          "internalType": "uint256",
          "name": "chairmanId",
          "type": "uint256"
        },
        {
          "internalType": "uint256",
          "name": "secGenId",
          "type": "uint256"
        },
        {
          "internalType": "uint256",
          "name": "treasurerId",
          "type": "uint256"
        },
        {
          "internalType": "uint256",
          "name": "votes",
          "type": "uint256"
        },
        {
          "internalType": "uint256",
          "name": "addedAt",
          "type": "uint256"
        },
        {
          "internalType": "uint256",
          "name": "updatedAt",
          "type": "uint256"
        }
      ],
      "payable": false,
      "stateMutability": "view",
      "type": "function"
    },
    {
      "constant": true,
      "inputs": [
        {
          "internalType": "uint256",
          "name": "_electionId",
          "type": "uint256"
        },
        {
          "internalType": "string",
          "name": "_token",
          "type": "string"
        }
      ],
      "name": "getBallot",
      "outputs": [
        {
          "internalType": "uint256",
          "name": "teamId",
          "type": "uint256"
        },
        {
          "internalType": "bytes32",
          "name": "votingToken",
          "type": "bytes32"
        },
        {
          "internalType": "bool",
          "name": "voted",
          "type": "bool"
        },
        {
          "internalType": "uint256",
          "name": "addedAt",
          "type": "uint256"
        },
        {
          "internalType": "uint256",
          "name": "updatedAt",
          "type": "uint256"
        }
      ],
      "payable": false,
      "stateMutability": "view",
      "type": "function"
    }
  ],
  "bytecode": "0x60806040526000600155600060025534801561001a57600080fd5b50336000806101000a81548173ffffffffffffffffffffffffffffffffffffffff021916908373ffffffffffffffffffffffffffffffffffffffff16021790555061301a8061006a6000396000f3fe608060405234801561001057600080fd5b50600436106100ea5760003560e01c80635e6fef011161008c578063998d1ee011610066578063998d1ee0146106ea5780639c98bcbb146107b9578063a017fede146107e7578063fce59287146108c9576100ea565b80635e6fef01146104e95780637babffed146105d3578063997d2830146106cc576100ea565b80633b3c11fa116100c85780633b3c11fa1461021c5780634129b2c9146102e15780634c7992ef146103235780635a3c213a14610410576100ea565b806302d05d3f146100ef5780631a806ae61461013957806329bc571c14610157575b600080fd5b6100f7610985565b604051808273ffffffffffffffffffffffffffffffffffffffff1673ffffffffffffffffffffffffffffffffffffffff16815260200191505060405180910390f35b6101416109aa565b6040518082815260200191505060405180910390f35b61021a6004803603604081101561016d57600080fd5b81019080803590602001909291908035906020019064010000000081111561019457600080fd5b8201836020820111156101a657600080fd5b803590602001918460018302840111640100000000831117156101c857600080fd5b91908080601f016020809104026020016040519081016040528093929190818152602001838380828437600081840152601f19601f8201169050808301925050505050505091929192905050506109b0565b005b6102df6004803603604081101561023257600080fd5b81019080803590602001909291908035906020019064010000000081111561025957600080fd5b82018360208201111561026b57600080fd5b8035906020019184600183028401116401000000008311171561028d57600080fd5b91908080601f016020809104026020016040519081016040528093929190818152602001838380828437600081840152601f19601f820116905080830192505050505050509192919290505050610be3565b005b61030d600480360360208110156102f757600080fd5b8101908080359060200190929190505050610f52565b6040518082815260200191505060405180910390f35b61040e600480360360c081101561033957600080fd5b8101908080359060200190929190803590602001909291908035906020019064010000000081111561036a57600080fd5b82018360208201111561037c57600080fd5b8035906020019184600183028401116401000000008311171561039e57600080fd5b91908080601f016020809104026020016040519081016040528093929190818152602001838380828437600081840152601f19601f820116905080830192505050505050509192919290803590602001909291908035906020019092919080359060200190929190505050611193565b005b6104e76004803603608081101561042657600080fd5b81019080803590602001909291908035906020019064010000000081111561044d57600080fd5b82018360208201111561045f57600080fd5b8035906020019184600183028401116401000000008311171561048157600080fd5b91908080601f016020809104026020016040519081016040528093929190818152602001838380828437600081840152601f19601f82011690508083019250505050505050919291929080359060200190929190803590602001909291905050506117fb565b005b610515600480360360208110156104ff57600080fd5b8101908080359060200190929190505050611b7a565b604051808b8152602001806020018a81526020018981526020018881526020018781526020018681526020018515151515815260200184815260200183815260200182810382528b818151815260200191508051906020019080838360005b8381101561058f578082015181840152602081019050610574565b50505050905090810190601f1680156105bc5780820380516001836020036101000a031916815260200191505b509b50505050505050505050505060405180910390f35b610696600480360360408110156105e957600080fd5b81019080803590602001909291908035906020019064010000000081111561061057600080fd5b82018360208201111561062257600080fd5b8035906020019184600183028401116401000000008311171561064457600080fd5b91908080601f016020809104026020016040519081016040528093929190818152602001838380828437600081840152601f19601f820116905080830192505050505050509192919290505050611c73565b60405180868152602001858152602001841515151581526020018381526020018281526020019550505050505060405180910390f35b6106d4611f5e565b6040518082815260200191505060405180910390f35b6107b76004803603606081101561070057600080fd5b8101908080359060200190929190803590602001909291908035906020019064010000000081111561073157600080fd5b82018360208201111561074357600080fd5b8035906020019184600183028401116401000000008311171561076557600080fd5b91908080601f016020809104026020016040519081016040528093929190818152602001838380828437600081840152601f19601f820116905080830192505050505050509192919290505050611f64565b005b6107e5600480360360208110156107cf57600080fd5b81019080803590602001909291905050506125db565b005b61081d600480360360408110156107fd57600080fd5b810190808035906020019092919080359060200190929190505050612921565b6040518089815260200180602001888152602001878152602001868152602001858152602001848152602001838152602001828103825289818151815260200191508051906020019080838360005b8381101561088757808201518184015260208101905061086c565b50505050905090810190601f1680156108b45780820380516001836020036101000a031916815260200191505b50995050505050505050505060405180910390f35b6108f5600480360360208110156108df57600080fd5b8101908080359060200190929190505050612c41565b6040518085815260200180602001848152602001838152602001828103825285818151815260200191508051906020019080838360005b8381101561094757808201518184015260208101905061092c565b50505050905090810190601f1680156109745780820380516001836020036101000a031916815260200191505b509550505050505060405180910390f35b6000809054906101000a900473ffffffffffffffffffffffffffffffffffffffff1681565b60025481565b6000809054906101000a900473ffffffffffffffffffffffffffffffffffffffff1673ffffffffffffffffffffffffffffffffffffffff163373ffffffffffffffffffffffffffffffffffffffff1614610a72576040517f08c379a000000000000000000000000000000000000000000000000000000000815260040180806020018281038252601f8152602001807f4f6e6c79207468652043726561746f722063616e2063616c6c20746869732e0081525060200191505060405180910390fd5b816000811415610aea576040517f08c379a000000000000000000000000000000000000000000000000000000000815260040180806020018281038252601a8152602001807f4944732073686f756c64206e6f7420657175616c207a65726f2e00000000000081525060200191505060405180910390fd5b60004290508360046000868152602001908152602001600020600001541415610b585782600460008681526020019081526020016000206001019080519060200190610b37929190612d09565b50806004600086815260200190815260200160002060030181905550610bdd565b60405180608001604052808581526020018481526020018281526020018281525060046000868152602001908152602001600020600082015181600001556020820151816001019080519060200190610bb2929190612d89565b5060408201518160020155606082015181600301559050506002600081548092919060010191905055505b50505050565b6000809054906101000a900473ffffffffffffffffffffffffffffffffffffffff1673ffffffffffffffffffffffffffffffffffffffff163373ffffffffffffffffffffffffffffffffffffffff1614610ca5576040517f08c379a000000000000000000000000000000000000000000000000000000000815260040180806020018281038252601f8152602001807f4f6e6c79207468652043726561746f722063616e2063616c6c20746869732e0081525060200191505060405180910390fd5b816000811415610d1d576040517f08c379a000000000000000000000000000000000000000000000000000000000815260040180806020018281038252601a8152602001807f4944732073686f756c64206e6f7420657175616c207a65726f2e00000000000081525060200191505060405180910390fd5b60004290506000836040516020018080602001828103825283818151815260200191508051906020019080838360005b83811015610d68578082015181840152602081019050610d4d565b50505050905090810190601f168015610d955780820380516001836020036101000a031916815260200191505b50925050506040516020818303038152906040528051906020012090508060036000878152602001908152602001600020600c016000838152602001908152602001600020600101541415610e52576040517f08c379a000000000000000000000000000000000000000000000000000000000815260040180806020018281038252601b8152602001807f566f74696e6720746f6b656e20616c72656164792061646465642e000000000081525060200191505060405180910390fd5b6000600360008781526020019081526020016000206006015490506040518060a001604052808281526020018381526020016000151581526020018481526020018481525060036000888152602001908152602001600020600c016000848152602001908152602001600020600082015181600001556020820151816001015560408201518160020160006101000a81548160ff02191690831515021790555060608201518160030155608082015181600401559050506003600087815260200190815260200160002060060160008154809291906001019190505550826003600088815260200190815260200160002060090181905550505050505050565b6000816000811415610fcc576040517f08c379a000000000000000000000000000000000000000000000000000000000815260040180806020018281038252601a8152602001807f4944732073686f756c64206e6f7420657175616c207a65726f2e00000000000081525060200191505060405180910390fd5b8280600360008381526020019081526020016000206000015414611058576040517f08c379a00000000000000000000000000000000000000000000000000000000081526004018080602001828103825260188152602001807f456c656374696f6e20646f6573206e6f742065786973742e000000000000000081525060200191505060405180910390fd5b6003600085815260200190815260200160002060070160009054906101000a900460ff166110ee576040517f08c379a00000000000000000000000000000000000000000000000000000000081526004018080602001828103825260128152602001807f456c656374696f6e206e6f74206f7665722e000000000000000000000000000081525060200191505060405180910390fd5b600080905060008090505b60036000878152602001908152602001600020600a018054905081101561118a578160036000888152602001908152602001600020600b01600083815260200190815260200160002060050154111561117d5760036000878152602001908152602001600020600b0160008281526020019081526020016000206005015491508094505b80806001019150506110f9565b50505050919050565b6000809054906101000a900473ffffffffffffffffffffffffffffffffffffffff1673ffffffffffffffffffffffffffffffffffffffff163373ffffffffffffffffffffffffffffffffffffffff1614611255576040517f08c379a000000000000000000000000000000000000000000000000000000000815260040180806020018281038252601f8152602001807f4f6e6c79207468652043726561746f722063616e2063616c6c20746869732e0081525060200191505060405180910390fd5b8560008114156112cd576040517f08c379a000000000000000000000000000000000000000000000000000000000815260040180806020018281038252601a8152602001807f4944732073686f756c64206e6f7420657175616c207a65726f2e00000000000081525060200191505060405180910390fd5b8680600360008381526020019081526020016000206000015414611359576040517f08c379a00000000000000000000000000000000000000000000000000000000081526004018080602001828103825260188152602001807f456c656374696f6e20646f6573206e6f742065786973742e000000000000000081525060200191505060405180910390fd5b8660008114156113d1576040517f08c379a000000000000000000000000000000000000000000000000000000000815260040180806020018281038252601a8152602001807f4944732073686f756c64206e6f7420657175616c207a65726f2e00000000000081525060200191505060405180910390fd5b6000429050600360008b8152602001908152602001600020600201548110611444576040517f08c379a0000000000000000000000000000000000000000000000000000000008152600401808060200182810382526025815260200180612f1e6025913960400191505060405180910390fd5b866004600089815260200190815260200160002060000154146114b2576040517f08c379a0000000000000000000000000000000000000000000000000000000008152600401808060200182810382526029815260200180612ef56029913960400191505060405180910390fd5b85600460008881526020019081526020016000206000015414611520576040517f08c379a0000000000000000000000000000000000000000000000000000000008152600401808060200182810382526033815260200180612fb36033913960400191505060405180910390fd5b8460046000878152602001908152602001600020600001541461158e576040517f08c379a000000000000000000000000000000000000000000000000000000000815260040180806020018281038252602a815260200180612f67602a913960400191505060405180910390fd5b88600360008c8152602001908152602001600020600b0160008b81526020019081526020016000206000015414156116c05787600360008c8152602001908152602001600020600b0160008b815260200190815260200160002060010190805190602001906115fe929190612d09565b5086600360008c8152602001908152602001600020600b0160008b81526020019081526020016000206002018190555085600360008c8152602001908152602001600020600b0160008b81526020019081526020016000206003018190555084600360008c8152602001908152602001600020600b0160008b81526020019081526020016000206004018190555080600360008c8152602001908152602001600020600b0160008b8152602001908152602001600020600701819055506117ef565b600360008b8152602001908152602001600020600a018990806001815401808255809150509060018203906000526020600020016000909192909190915055506040518061010001604052808a81526020018981526020018881526020018781526020018681526020016000815260200182815260200182815250600360008c8152602001908152602001600020600b0160008b8152602001908152602001600020600082015181600001556020820151816001019080519060200190611788929190612d89565b5060408201518160020155606082015181600301556080820151816004015560a0820151816005015560c0820151816006015560e08201518160070155905050600360008b8152602001908152602001600020600501600081548092919060010191905055505b50505050505050505050565b6000809054906101000a900473ffffffffffffffffffffffffffffffffffffffff1673ffffffffffffffffffffffffffffffffffffffff163373ffffffffffffffffffffffffffffffffffffffff16146118bd576040517f08c379a000000000000000000000000000000000000000000000000000000000815260040180806020018281038252601f8152602001807f4f6e6c79207468652043726561746f722063616e2063616c6c20746869732e0081525060200191505060405180910390fd5b836000811415611935576040517f08c379a000000000000000000000000000000000000000000000000000000000815260040180806020018281038252601a8152602001807f4944732073686f756c64206e6f7420657175616c207a65726f2e00000000000081525060200191505060405180910390fd5b60004290508560036000888152602001908152602001600020600001541415611a4757600360008781526020019081526020016000206002015481106119c6576040517f08c379a0000000000000000000000000000000000000000000000000000000008152600401808060200182810382526025815260200180612f1e6025913960400191505060405180910390fd5b846003600088815260200190815260200160002060010190805190602001906119f0929190612d09565b50836003600088815260200190815260200160002060020181905550826003600088815260200190815260200160002060030181905550806003600088815260200190815260200160002060090181905550611b72565b60606040518061016001604052808881526020018781526020018681526020018581526020016000815260200160008152602001600081526020016000151581526020018381526020018381526020018281525060036000898152602001908152602001600020600082015181600001556020820151816001019080519060200190611ad4929190612d89565b5060408201518160020155606082015181600301556080820151816004015560a0820151816005015560c0820151816006015560e08201518160070160006101000a81548160ff0219169083151502179055506101008201518160080155610120820151816009015561014082015181600a019080519060200190611b5a929190612e09565b50905050600160008154809291906001019190505550505b505050505050565b6003602052806000526040600020600091509050806000015490806001018054600181600116156101000203166002900480601f016020809104026020016040519081016040528092919081815260200182805460018160011615610100020316600290048015611c2c5780601f10611c0157610100808354040283529160200191611c2c565b820191906000526020600020905b815481529060010190602001808311611c0f57829003601f168201915b5050505050908060020154908060030154908060040154908060050154908060060154908060070160009054906101000a900460ff1690806008015490806009015490508a565b6000806000806000866000811415611cf3576040517f08c379a000000000000000000000000000000000000000000000000000000000815260040180806020018281038252601a8152602001807f4944732073686f756c64206e6f7420657175616c207a65726f2e00000000000081525060200191505060405180910390fd5b8780600360008381526020019081526020016000206000015414611d7f576040517f08c379a00000000000000000000000000000000000000000000000000000000081526004018080602001828103825260188152602001807f456c656374696f6e20646f6573206e6f742065786973742e000000000000000081525060200191505060405180910390fd5b6000886040516020018080602001828103825283818151815260200191508051906020019080838360005b83811015611dc5578082015181840152602081019050611daa565b50505050905090810190601f168015611df25780820380516001836020036101000a031916815260200191505b509250505060405160208183030381529060405280519060200120905080600360008c8152602001908152602001600020600c0160008381526020019081526020016000206001015414611eae576040517f08c379a000000000000000000000000000000000000000000000000000000000815260040180806020018281038252601c8152602001807f566f74696e6720546f6b656e20646f6573206e6f742065786973742e0000000081525060200191505060405180910390fd5b611eb6612e56565b600360008c8152602001908152602001600020600c0160008381526020019081526020016000206040518060a001604052908160008201548152602001600182015481526020016002820160009054906101000a900460ff161515151581526020016003820154815260200160048201548152505090508060000151816020015182604001518360600151846080015198509850985098509850505050509295509295909350565b60015481565b826000811415611fdc576040517f08c379a000000000000000000000000000000000000000000000000000000000815260040180806020018281038252601a8152602001807f4944732073686f756c64206e6f7420657175616c207a65726f2e00000000000081525060200191505060405180910390fd5b826000811415612054576040517f08c379a000000000000000000000000000000000000000000000000000000000815260040180806020018281038252601a8152602001807f4944732073686f756c64206e6f7420657175616c207a65726f2e00000000000081525060200191505060405180910390fd5b84806003600083815260200190815260200160002060000154146120e0576040517f08c379a00000000000000000000000000000000000000000000000000000000081526004018080602001828103825260188152602001807f456c656374696f6e20646f6573206e6f742065786973742e000000000000000081525060200191505060405180910390fd5b600042905060036000888152602001908152602001600020600201548110158015612121575060036000888152602001908152602001600020600301548111155b612193576040517f08c379a000000000000000000000000000000000000000000000000000000000815260040180806020018281038252601b8152602001807f4e6f74207468652074696d6520746f206361737420766f7465732e000000000081525060200191505060405180910390fd5b6000856040516020018080602001828103825283818151815260200191508051906020019080838360005b838110156121d95780820151818401526020810190506121be565b50505050905090810190601f1680156122065780820380516001836020036101000a031916815260200191505b509250505060405160208183030381529060405280519060200120905080600360008a8152602001908152602001600020600c01600083815260200190815260200160002060010154146122c2576040517f08c379a000000000000000000000000000000000000000000000000000000000815260040180806020018281038252601c8152602001807f566f74696e6720746f6b656e20646f6573206e6f742065786973742e0000000081525060200191505060405180910390fd5b60036000898152602001908152602001600020600c01600082815260200190815260200160002060020160009054906101000a900460ff1615612350576040517f08c379a0000000000000000000000000000000000000000000000000000000008152600401808060200182810382526022815260200180612f916022913960400191505060405180910390fd5b86600360008a8152602001908152602001600020600b01600089815260200190815260200160002060000154146123ef576040517f08c379a00000000000000000000000000000000000000000000000000000000081526004018080602001828103825260148152602001807f5465616d20646f6573206e6f742065786973742e00000000000000000000000081525060200191505060405180910390fd5b86600360008a8152602001908152602001600020600c016000838152602001908152602001600020600001819055506001600360008a8152602001908152602001600020600c01600083815260200190815260200160002060020160006101000a81548160ff02191690831515021790555081600360008a8152602001908152602001600020600c0160008381526020019081526020016000206004018190555060036000898152602001908152602001600020600b0160008881526020019081526020016000206005016000815480929190600101919050555081600360008a8152602001908152602001600020600b01600089815260200190815260200160002060070181905550600360008981526020019081526020016000206004016000815480929190600101919050555081600360008a8152602001908152602001600020600901819055507f52d5c01ece1a2c78d4c9854554a1fe8a1c5f98f759107e2f3bee72d02a16fcd58888600360008c8152602001908152602001600020600b0160008b815260200190815260200160002060050154600360008d81526020019081526020016000206004015486604051808681526020018581526020018481526020018381526020018281526020019550505050505060405180910390a15050505050505050565b6000809054906101000a900473ffffffffffffffffffffffffffffffffffffffff1673ffffffffffffffffffffffffffffffffffffffff163373ffffffffffffffffffffffffffffffffffffffff161461269d576040517f08c379a000000000000000000000000000000000000000000000000000000000815260040180806020018281038252601f8152602001807f4f6e6c79207468652043726561746f722063616e2063616c6c20746869732e0081525060200191505060405180910390fd5b806000811415612715576040517f08c379a000000000000000000000000000000000000000000000000000000000815260040180806020018281038252601a8152602001807f4944732073686f756c64206e6f7420657175616c207a65726f2e00000000000081525060200191505060405180910390fd5b81806003600083815260200190815260200160002060000154146127a1576040517f08c379a00000000000000000000000000000000000000000000000000000000081526004018080602001828103825260188152602001807f456c656374696f6e20646f6573206e6f742065786973742e000000000000000081525060200191505060405180910390fd5b6003600084815260200190815260200160002060030154421161282c576040517f08c379a00000000000000000000000000000000000000000000000000000000081526004018080602001828103825260128152602001807f456c656374696f6e206e6f74206f7665722e000000000000000000000000000081525060200191505060405180910390fd5b6003600084815260200190815260200160002060070160009054906101000a900460ff16156128a6576040517f08c379a0000000000000000000000000000000000000000000000000000000008152600401808060200182810382526024815260200180612f436024913960400191505060405180910390fd5b60016003600085815260200190815260200160002060070160006101000a81548160ff0219169083151502179055507f32e2c12037f9600b91a766ce53eab6909f3bdb865851cd9a8c7fafbdf249a9ce8361290085610f52565b604051808381526020018281526020019250505060405180910390a1505050565b600060606000806000806000808960008114156129a6576040517f08c379a000000000000000000000000000000000000000000000000000000000815260040180806020018281038252601a8152602001807f4944732073686f756c64206e6f7420657175616c207a65726f2e00000000000081525060200191505060405180910390fd5b8a80600360008381526020019081526020016000206000015414612a32576040517f08c379a00000000000000000000000000000000000000000000000000000000081526004018080602001828103825260188152602001807f456c656374696f6e20646f6573206e6f742065786973742e000000000000000081525060200191505060405180910390fd5b8a600360008e8152602001908152602001600020600b0160008d81526020019081526020016000206000015414612ad1576040517f08c379a00000000000000000000000000000000000000000000000000000000081526004018080602001828103825260148152602001807f5465616d20646f6573206e6f742065786973742e00000000000000000000000081525060200191505060405180910390fd5b612ad9612e8a565b600360008e8152602001908152602001600020600b0160008d81526020019081526020016000206040518061010001604052908160008201548152602001600182018054600181600116156101000203166002900480601f016020809104026020016040519081016040528092919081815260200182805460018160011615610100020316600290048015612baf5780601f10612b8457610100808354040283529160200191612baf565b820191906000526020600020905b815481529060010190602001808311612b9257829003601f168201915b5050505050815260200160028201548152602001600382015481526020016004820154815260200160058201548152602001600682015481526020016007820154815250509050806000015181602001518260400151836060015184608001518560a001518660c001518760e001518696509a509a509a509a509a509a509a509a505050509295985092959890939650565b6004602052806000526040600020600091509050806000015490806001018054600181600116156101000203166002900480601f016020809104026020016040519081016040528092919081815260200182805460018160011615610100020316600290048015612cf35780601f10612cc857610100808354040283529160200191612cf3565b820191906000526020600020905b815481529060010190602001808311612cd657829003601f168201915b5050505050908060020154908060030154905084565b828054600181600116156101000203166002900490600052602060002090601f016020900481019282601f10612d4a57805160ff1916838001178555612d78565b82800160010185558215612d78579182015b82811115612d77578251825591602001919060010190612d5c565b5b509050612d859190612ecf565b5090565b828054600181600116156101000203166002900490600052602060002090601f016020900481019282601f10612dca57805160ff1916838001178555612df8565b82800160010185558215612df8579182015b82811115612df7578251825591602001919060010190612ddc565b5b509050612e059190612ecf565b5090565b828054828255906000526020600020908101928215612e45579160200282015b82811115612e44578251825591602001919060010190612e29565b5b509050612e529190612ecf565b5090565b6040518060a00160405280600081526020016000801916815260200160001515815260200160008152602001600081525090565b60405180610100016040528060008152602001606081526020016000815260200160008152602001600081526020016000815260200160008152602001600081525090565b612ef191905b80821115612eed576000816000905550600101612ed5565b5090565b9056fe43686169726d616e494420646f6573206e6f7420657869737420696e206f7572207265636f7264732e456c656374696f6e20686173206569746865722073746172746564206f7220656e6465642e656e64456c656374696f6e2068617320616c7265616479206265656e2063616c6c65642e547265617375726572494420646f6573206e6f7420657869737420696e206f7572207265636f7264732e566f7465722068617320616c7265616479206361737420746865697220766f74652e5365637265746172792047656e6572616c20494420646f6573206e6f7420657869737420696e206f7572207265636f7264732ea265627a7a723158207259805c556cc22975903d48310b95170f733d19e9e26687fe9eda25958f079764736f6c63430005100032",
  "source": "pragma solidity >=0.4.21 <0.7.0;\n\ncontract Voting {\n    address public creator;\n    uint public electionCount = 0;\n    uint public aspirantCount = 0;\n\n    struct Election {\n        uint electionId;\n        string name;\n        uint start_timestamp;\n        uint end_timestamp;\n        uint voteCount;\n        uint teamCount;\n        uint tokenCount;\n        bool ended;\n        uint addedAt;\n        uint updatedAt;\n        uint[] teamIds; // apparently, you can't loop over mappings or their keys\n        mapping(uint => Team) teams;\n        mapping(bytes32 => Ballot) votingTokens;\n    }\n\n    struct Aspirant {\n        uint aspirantId;\n        string name;\n        uint addedAt;\n        uint updatedAt;\n    }\n\n    struct Team {\n        uint teamId;\n        string name;\n        uint chairmanId;\n        uint secGenId;\n        uint treasurerId;\n        uint votes;\n        uint addedAt;\n        uint updatedAt;\n    }\n\n    struct Ballot {\n        uint teamId;\n        bytes32 votingToken; // a hash of the actual voting token\n        bool cast;\n        uint addedAt;\n        uint updatedAt;\n    }\n\n    mapping(uint => Election) public elections;\n    mapping(uint => Aspirant) public aspirants;\n\n    event Cast(uint _electionId, uint _teamId, uint teamCount, uint totalCount, uint castAt);\n    event ElectionEnded(uint _electionId, uint _winningTeamId);\n\n    modifier onlyCreator() {\n        require(msg.sender == creator, \"Only the Creator can call this.\");\n        _;\n    }\n\n    modifier notZero(uint _n) {\n        require(_n != 0, \"IDs should not equal zero.\");\n        _;\n    }\n\n    modifier electionExists(uint _electionId) {\n        require(elections[_electionId].electionId == _electionId, \"Election does not exist.\");\n        _;\n    }\n\n\n    constructor() public {\n        creator = msg.sender;\n    }\n\n    function setElection(uint _electionId, string memory _name, uint _start_timestamp, uint _end_timestamp)\n    public\n    onlyCreator()\n    notZero(_electionId)\n    {\n        uint time = now;\n        if (elections[_electionId].electionId == _electionId) {\n            require(time < elections[_electionId].start_timestamp, \"Election has either started or ended.\");\n            elections[_electionId].name = _name;\n            elections[_electionId].start_timestamp = _start_timestamp;\n            elections[_electionId].end_timestamp = _end_timestamp;\n            elections[_electionId].updatedAt = time;\n        } else {\n            uint[] memory teamIds;\n            elections[_electionId] = Election(_electionId, _name, _start_timestamp, _end_timestamp, 0, 0, 0, false, time, time, teamIds);\n            electionCount++;\n        }\n    }\n\n    function setAspirant(uint _aspirantId, string memory _name)\n    public\n    onlyCreator()\n    notZero(_aspirantId)\n    {\n        uint time = now;\n        if (aspirants[_aspirantId].aspirantId == _aspirantId) {\n            aspirants[_aspirantId].name = _name;\n            aspirants[_aspirantId].updatedAt = time;\n        } else {\n            aspirants[_aspirantId] = Aspirant(_aspirantId, _name, time, time);\n            aspirantCount++;\n        }\n    }\n\n    function setTeam(uint _electionId, uint _teamId, string memory _name, uint _chairmanId, uint _secGenId, uint _treasurerId)\n    public\n    onlyCreator()\n    notZero(_electionId)\n    electionExists(_electionId)\n    notZero(_teamId)\n    {\n        uint time = now;\n        require(time < elections[_electionId].start_timestamp, \"Election has either started or ended.\");\n        require(aspirants[_chairmanId].aspirantId == _chairmanId, \"ChairmanID does not exist in our records.\");\n        require(aspirants[_secGenId].aspirantId == _secGenId, \"Secretary General ID does not exist in our records.\");\n        require(aspirants[_treasurerId].aspirantId == _treasurerId, \"TreasurerID does not exist in our records.\");\n        if (elections[_electionId].teams[_teamId].teamId == _teamId) {\n            elections[_electionId].teams[_teamId].name = _name;\n            elections[_electionId].teams[_teamId].chairmanId = _chairmanId;\n            elections[_electionId].teams[_teamId].secGenId = _secGenId;\n            elections[_electionId].teams[_teamId].treasurerId = _treasurerId;\n            elections[_electionId].teams[_teamId].updatedAt = time;\n        } else {\n            elections[_electionId].teamIds.push(_teamId);\n            elections[_electionId].teams[_teamId] = Team(_teamId, _name, _chairmanId, _secGenId, _treasurerId, 0, time, time);\n            elections[_electionId].teamCount++;\n        }\n    }\n\n    function setVotingToken(uint _electionId, string memory _token)\n    public\n    onlyCreator()\n    notZero(_electionId)\n    {\n        uint time = now;\n        bytes32 _hashedToken = keccak256(abi.encode(_token));\n        require(elections[_electionId].votingTokens[_hashedToken].votingToken != _hashedToken, \"Voting token already added.\");\n        uint tokenCount = elections[_electionId].tokenCount;\n        elections[_electionId].votingTokens[_hashedToken] = Ballot(tokenCount, _hashedToken, false, time, time);\n        elections[_electionId].tokenCount++;\n        elections[_electionId].updatedAt = time;\n    }\n\n    function cast(uint _electionId, uint _teamId, string memory _votingToken)\n    public\n    notZero(_electionId)\n    notZero(_teamId)\n    electionExists(_electionId)\n    {\n        uint time = now;\n        require(time >= elections[_electionId].start_timestamp && time <= elections[_electionId].end_timestamp, \"Not the time to cast votes.\");\n        bytes32 _hashedToken = keccak256(abi.encode(_votingToken));\n        require(elections[_electionId].votingTokens[_hashedToken].votingToken == _hashedToken, \"Voting token does not exist.\");\n        require(!elections[_electionId].votingTokens[_hashedToken].cast, \"Voter has already cast their vote.\");\n        require(elections[_electionId].teams[_teamId].teamId == _teamId, \"Team does not exist.\");\n\n        // register the vote\n        elections[_electionId].votingTokens[_hashedToken].teamId = _teamId;\n        elections[_electionId].votingTokens[_hashedToken].cast = true;\n        elections[_electionId].votingTokens[_hashedToken].updatedAt = time;\n        elections[_electionId].teams[_teamId].votes++;\n        elections[_electionId].teams[_teamId].updatedAt = time;\n        elections[_electionId].voteCount++;\n        elections[_electionId].updatedAt = time;\n        emit Cast(_electionId, _teamId, elections[_electionId].teams[_teamId].votes,  elections[_electionId].voteCount, time);\n    }\n\n    function endElection(uint _electionId)\n    public\n    onlyCreator()\n    notZero(_electionId)\n    electionExists(_electionId)\n    {\n        require(now > elections[_electionId].end_timestamp, \"Election not over.\");\n        require(!elections[_electionId].ended, \"endElection has already been called.\");\n        elections[_electionId].ended = true;\n        emit ElectionEnded(_electionId, getWinner(_electionId));\n    }\n\n    function getWinner(uint _electionId)\n    public\n    notZero(_electionId)\n    electionExists(_electionId)\n    view returns (uint _winningTeamId)\n    {\n        require(elections[_electionId].ended, \"Election not over.\");\n        uint winningVoteCount = 0;\n        for (uint _teamId = 0; _teamId < elections[_electionId].teamIds.length; _teamId++) {\n            if (elections[_electionId].teams[_teamId].votes > winningVoteCount) {\n                winningVoteCount = elections[_electionId].teams[_teamId].votes;\n                _winningTeamId = _teamId;\n            }\n        }\n    }\n\n    function getTeam(uint _electionId, uint _teamId)\n    public\n    notZero(_electionId)\n    electionExists(_electionId)\n    view returns (uint teamId, string memory name, uint chairmanId, uint secGenId, uint treasurerId, uint votes, uint addedAt, uint updatedAt)\n    {\n        require(elections[_electionId].teams[_teamId].teamId == _teamId, \"Team does not exist.\");\n        Team memory t = elections[_electionId].teams[_teamId];\n        return (t.teamId, t.name, t.chairmanId, t.secGenId, t.treasurerId, t.votes, t.addedAt, t.updatedAt);\n    }\n\n    function getBallot(uint _electionId, string memory _token)\n    public\n    notZero(_electionId)\n    electionExists(_electionId)\n    view returns (uint teamId, bytes32 votingToken, bool voted, uint addedAt, uint updatedAt)\n    {\n        bytes32 _hashedToken = keccak256(abi.encode(_token));\n        require(elections[_electionId].votingTokens[_hashedToken].votingToken == _hashedToken, \"Voting Token does not exist.\");\n        Ballot memory b = elections[_electionId].votingTokens[_hashedToken];\n        return (b.teamId, b.votingToken, b.cast, b.addedAt, b.updatedAt);\n    }\n}\n",
  "sourcePath": "/home/stephen/Projects/voting-system-blockchain/contracts/Voting.sol",
  "compiler": {
    "name": "solc",
    "version": "0.5.16+commit.9c3226ce.Emscripten.clang"
  },
  "schemaVersion": "3.0.23",
  "updatedAt": "2020-05-07T11:12:33.776Z",
  "networkType": "ethereum",
  "devdoc": {
    "methods": {}
  },
  "userdoc": {
    "methods": {}
  }
}