{
  "contractName": "Voting",
  "abi": [
    {
      "inputs": [],
      "payable": false,
      "stateMutability": "nonpayable",
      "type": "constructor"
    },
    {
      "anonymous": false,
      "inputs": [
        {
          "indexed": false,
          "internalType": "uint256",
          "name": "_electionId",
          "type": "uint256"
        },
        {
          "indexed": false,
          "internalType": "uint256",
          "name": "_teamId",
          "type": "uint256"
        },
        {
          "indexed": false,
          "internalType": "uint256",
          "name": "teamCount",
          "type": "uint256"
        },
        {
          "indexed": false,
          "internalType": "uint256",
          "name": "totalCount",
          "type": "uint256"
        },
        {
          "indexed": false,
          "internalType": "uint256",
          "name": "castAt",
          "type": "uint256"
        }
      ],
      "name": "Cast",
      "type": "event"
    },
    {
      "anonymous": false,
      "inputs": [
        {
          "indexed": false,
          "internalType": "uint256",
          "name": "_electionId",
          "type": "uint256"
        },
        {
          "indexed": false,
          "internalType": "uint256",
          "name": "_winningTeamId",
          "type": "uint256"
        }
      ],
      "name": "ElectionEnded",
      "type": "event"
    },
    {
      "constant": true,
      "inputs": [],
      "name": "aspirantCount",
      "outputs": [
        {
          "internalType": "uint256",
          "name": "",
          "type": "uint256"
        }
      ],
      "payable": false,
      "stateMutability": "view",
      "type": "function"
    },
    {
      "constant": true,
      "inputs": [
        {
          "internalType": "uint256",
          "name": "",
          "type": "uint256"
        }
      ],
      "name": "aspirants",
      "outputs": [
        {
          "internalType": "uint256",
          "name": "aspirantId",
          "type": "uint256"
        },
        {
          "internalType": "string",
          "name": "name",
          "type": "string"
        },
        {
          "internalType": "uint256",
          "name": "addedAt",
          "type": "uint256"
        },
        {
          "internalType": "uint256",
          "name": "updatedAt",
          "type": "uint256"
        }
      ],
      "payable": false,
      "stateMutability": "view",
      "type": "function"
    },
    {
      "constant": true,
      "inputs": [],
      "name": "creator",
      "outputs": [
        {
          "internalType": "address",
          "name": "",
          "type": "address"
        }
      ],
      "payable": false,
      "stateMutability": "view",
      "type": "function"
    },
    {
      "constant": true,
      "inputs": [],
      "name": "electionCount",
      "outputs": [
        {
          "internalType": "uint256",
          "name": "",
          "type": "uint256"
        }
      ],
      "payable": false,
      "stateMutability": "view",
      "type": "function"
    },
    {
      "constant": true,
      "inputs": [
        {
          "internalType": "uint256",
          "name": "",
          "type": "uint256"
        }
      ],
      "name": "elections",
      "outputs": [
        {
          "internalType": "uint256",
          "name": "electionId",
          "type": "uint256"
        },
        {
          "internalType": "string",
          "name": "name",
          "type": "string"
        },
        {
          "internalType": "uint256",
          "name": "start_timestamp",
          "type": "uint256"
        },
        {
          "internalType": "uint256",
          "name": "end_timestamp",
          "type": "uint256"
        },
        {
          "internalType": "uint256",
          "name": "voteCount",
          "type": "uint256"
        },
        {
          "internalType": "uint256",
          "name": "teamCount",
          "type": "uint256"
        },
        {
          "internalType": "uint256",
          "name": "tokenCount",
          "type": "uint256"
        },
        {
          "internalType": "bool",
          "name": "ended",
          "type": "bool"
        },
        {
          "internalType": "uint256",
          "name": "addedAt",
          "type": "uint256"
        },
        {
          "internalType": "uint256",
          "name": "updatedAt",
          "type": "uint256"
        }
      ],
      "payable": false,
      "stateMutability": "view",
      "type": "function"
    },
    {
      "constant": false,
      "inputs": [
        {
          "internalType": "uint256",
          "name": "_electionId",
          "type": "uint256"
        },
        {
          "internalType": "string",
          "name": "_name",
          "type": "string"
        },
        {
          "internalType": "uint256",
          "name": "_start_timestamp",
          "type": "uint256"
        },
        {
          "internalType": "uint256",
          "name": "_end_timestamp",
          "type": "uint256"
        }
      ],
      "name": "setElection",
      "outputs": [],
      "payable": false,
      "stateMutability": "nonpayable",
      "type": "function"
    },
    {
      "constant": false,
      "inputs": [
        {
          "internalType": "uint256",
          "name": "_aspirantId",
          "type": "uint256"
        },
        {
          "internalType": "string",
          "name": "_name",
          "type": "string"
        }
      ],
      "name": "setAspirant",
      "outputs": [],
      "payable": false,
      "stateMutability": "nonpayable",
      "type": "function"
    },
    {
      "constant": false,
      "inputs": [
        {
          "internalType": "uint256",
          "name": "_electionId",
          "type": "uint256"
        },
        {
          "internalType": "uint256",
          "name": "_teamId",
          "type": "uint256"
        },
        {
          "internalType": "string",
          "name": "_name",
          "type": "string"
        },
        {
          "internalType": "uint256",
          "name": "_chairmanId",
          "type": "uint256"
        },
        {
          "internalType": "uint256",
          "name": "_secGenId",
          "type": "uint256"
        },
        {
          "internalType": "uint256",
          "name": "_treasurerId",
          "type": "uint256"
        }
      ],
      "name": "setTeam",
      "outputs": [],
      "payable": false,
      "stateMutability": "nonpayable",
      "type": "function"
    },
    {
      "constant": false,
      "inputs": [
        {
          "internalType": "uint256",
          "name": "_electionId",
          "type": "uint256"
        },
        {
          "internalType": "string",
          "name": "_token",
          "type": "string"
        }
      ],
      "name": "setVotingToken",
      "outputs": [],
      "payable": false,
      "stateMutability": "nonpayable",
      "type": "function"
    },
    {
      "constant": false,
      "inputs": [
        {
          "internalType": "uint256",
          "name": "_electionId",
          "type": "uint256"
        },
        {
          "internalType": "uint256",
          "name": "_teamId",
          "type": "uint256"
        },
        {
          "internalType": "string",
          "name": "_votingToken",
          "type": "string"
        }
      ],
      "name": "cast",
      "outputs": [],
      "payable": false,
      "stateMutability": "nonpayable",
      "type": "function"
    },
    {
      "constant": false,
      "inputs": [
        {
          "internalType": "uint256",
          "name": "_electionId",
          "type": "uint256"
        }
      ],
      "name": "endElection",
      "outputs": [],
      "payable": false,
      "stateMutability": "nonpayable",
      "type": "function"
    },
    {
      "constant": true,
      "inputs": [
        {
          "internalType": "uint256",
          "name": "_electionId",
          "type": "uint256"
        }
      ],
      "name": "getWinner",
      "outputs": [
        {
          "internalType": "uint256",
          "name": "_winningTeamId",
          "type": "uint256"
        }
      ],
      "payable": false,
      "stateMutability": "view",
      "type": "function"
    },
    {
      "constant": true,
      "inputs": [
        {
          "internalType": "uint256",
          "name": "_electionId",
          "type": "uint256"
        },
        {
          "internalType": "uint256",
          "name": "_teamId",
          "type": "uint256"
        }
      ],
      "name": "getTeam",
      "outputs": [
        {
          "internalType": "uint256",
          "name": "teamId",
          "type": "uint256"
        },
        {
          "internalType": "string",
          "name": "name",
          "type": "string"
        },
        {
          "internalType": "uint256",
          "name": "chairmanId",
          "type": "uint256"
        },
        {
          "internalType": "uint256",
          "name": "secGenId",
          "type": "uint256"
        },
        {
          "internalType": "uint256",
          "name": "treasurerId",
          "type": "uint256"
        },
        {
          "internalType": "uint256",
          "name": "votes",
          "type": "uint256"
        },
        {
          "internalType": "uint256",
          "name": "addedAt",
          "type": "uint256"
        },
        {
          "internalType": "uint256",
          "name": "updatedAt",
          "type": "uint256"
        }
      ],
      "payable": false,
      "stateMutability": "view",
      "type": "function"
    },
    {
      "constant": true,
      "inputs": [
        {
          "internalType": "uint256",
          "name": "_electionId",
          "type": "uint256"
        },
        {
          "internalType": "string",
          "name": "_token",
          "type": "string"
        }
      ],
      "name": "getBallot",
      "outputs": [
        {
          "internalType": "uint256",
          "name": "teamId",
          "type": "uint256"
        },
        {
          "internalType": "bytes32",
          "name": "votingToken",
          "type": "bytes32"
        },
        {
          "internalType": "bool",
          "name": "voted",
          "type": "bool"
        },
        {
          "internalType": "uint256",
          "name": "addedAt",
          "type": "uint256"
        },
        {
          "internalType": "uint256",
          "name": "updatedAt",
          "type": "uint256"
        }
      ],
      "payable": false,
      "stateMutability": "view",
      "type": "function"
    },
    {
      "constant": true,
      "inputs": [
        {
          "internalType": "uint256",
          "name": "_electionId",
          "type": "uint256"
        }
      ],
      "name": "getResults",
      "outputs": [
        {
          "components": [
            {
              "internalType": "uint256",
              "name": "teamId",
              "type": "uint256"
            },
            {
              "internalType": "string",
              "name": "name",
              "type": "string"
            },
            {
              "internalType": "uint256",
              "name": "chairmanId",
              "type": "uint256"
            },
            {
              "internalType": "uint256",
              "name": "secGenId",
              "type": "uint256"
            },
            {
              "internalType": "uint256",
              "name": "treasurerId",
              "type": "uint256"
            },
            {
              "internalType": "uint256",
              "name": "votes",
              "type": "uint256"
            },
            {
              "internalType": "uint256",
              "name": "addedAt",
              "type": "uint256"
            },
            {
              "internalType": "uint256",
              "name": "updatedAt",
              "type": "uint256"
            }
          ],
          "internalType": "struct Voting.Team[]",
          "name": "",
          "type": "tuple[]"
        }
      ],
      "payable": false,
      "stateMutability": "view",
      "type": "function"
    }
  ],
  "bytecode": "0x60806040526000600155600060025534801561001a57600080fd5b50336000806101000a81548173ffffffffffffffffffffffffffffffffffffffff021916908373ffffffffffffffffffffffffffffffffffffffff1602179055506133b78061006a6000396000f3fe608060405234801561001057600080fd5b50600436106100f55760003560e01c80635e6fef0111610097578063998d1ee011610066578063998d1ee0146102915780639c98bcbb146102ad578063a017fede146102c9578063fce5928714610300576100f5565b80635e6fef01146101d65780637babffed1461020f57806381a60c0d14610243578063997d283014610273576100f5565b80633b3c11fa116100d35780633b3c11fa146101525780634129b2c91461016e5780634c7992ef1461019e5780635a3c213a146101ba576100f5565b806302d05d3f146100fa5780631a806ae61461011857806329bc571c14610136575b600080fd5b610102610333565b60405161010f9190612d51565b60405180910390f35b610120610358565b60405161012d9190612f90565b60405180910390f35b610150600480360361014b919081019061246b565b61035e565b005b61016c6004803603610167919081019061246b565b61052b565b005b61018860048036036101839190810190612442565b61079c565b6040516101959190612f90565b60405180910390f35b6101b860048036036101b391908101906125dd565b610975565b005b6101d460048036036101cf91908101906124bf565b610eb9565b005b6101f060048036036101eb9190810190612442565b6111bc565b6040516102069a999897969594939291906130cf565b60405180910390f35b6102296004803603610224919081019061246b565b6112b5565b60405161023a959493929190612fab565b60405180910390f35b61025d60048036036102589190810190612442565b6114a2565b60405161026a9190612d6c565b60405180910390f35b61027b61173a565b6040516102889190612f90565b60405180910390f35b6102ab60048036036102a69190810190612576565b611740565b005b6102c760048036036102c29190810190612442565b611bfc565b005b6102e360048036036102de919081019061253a565b611e5a565b6040516102f7989796959493929190612ffe565b60405180910390f35b61031a60048036036103159190810190612442565b6120e1565b60405161032a9493929190613083565b60405180910390f35b6000809054906101000a900473ffffffffffffffffffffffffffffffffffffffff1681565b60025481565b6000809054906101000a900473ffffffffffffffffffffffffffffffffffffffff1673ffffffffffffffffffffffffffffffffffffffff163373ffffffffffffffffffffffffffffffffffffffff16146103ed576040517f08c379a00000000000000000000000000000000000000000000000000000000081526004016103e490612f70565b60405180910390fd5b816000811415610432576040517f08c379a000000000000000000000000000000000000000000000000000000000815260040161042990612e70565b60405180910390fd5b600042905083600460008681526020019081526020016000206000015414156104a0578260046000868152602001908152602001600020600101908051906020019061047f9291906121a9565b50806004600086815260200190815260200160002060030181905550610525565b604051806080016040528085815260200184815260200182815260200182815250600460008681526020019081526020016000206000820151816000015560208201518160010190805190602001906104fa929190612229565b5060408201518160020155606082015181600301559050506002600081548092919060010191905055505b50505050565b6000809054906101000a900473ffffffffffffffffffffffffffffffffffffffff1673ffffffffffffffffffffffffffffffffffffffff163373ffffffffffffffffffffffffffffffffffffffff16146105ba576040517f08c379a00000000000000000000000000000000000000000000000000000000081526004016105b190612f70565b60405180910390fd5b8160008114156105ff576040517f08c379a00000000000000000000000000000000000000000000000000000000081526004016105f690612e70565b60405180910390fd5b60004290506000836040516020016106179190612d8e565b6040516020818303038152906040528051906020012090508060036000878152602001908152602001600020600c01600083815260200190815260200160002060010154141561069c576040517f08c379a000000000000000000000000000000000000000000000000000000000815260040161069390612f10565b60405180910390fd5b6000600360008781526020019081526020016000206006015490506040518060a001604052808281526020018381526020016000151581526020018481526020018481525060036000888152602001908152602001600020600c016000848152602001908152602001600020600082015181600001556020820151816001015560408201518160020160006101000a81548160ff02191690831515021790555060608201518160030155608082015181600401559050506003600087815260200190815260200160002060060160008154809291906001019190505550826003600088815260200190815260200160002060090181905550505050505050565b60008160008114156107e3576040517f08c379a00000000000000000000000000000000000000000000000000000000081526004016107da90612e70565b60405180910390fd5b828060036000838152602001908152602001600020600001541461083c576040517f08c379a000000000000000000000000000000000000000000000000000000000815260040161083390612ef0565b60405180910390fd5b6003600085815260200190815260200160002060070160009054906101000a900460ff1661089f576040517f08c379a000000000000000000000000000000000000000000000000000000000815260040161089690612e90565b60405180910390fd5b6000809050600080600090505b60036000888152602001908152602001600020600a018054905081101561096b5760036000888152602001908152602001600020600a0181815481106108ee57fe5b906000526020600020015491508260036000898152602001908152602001600020600b01600084815260200190815260200160002060050154111561095e5760036000888152602001908152602001600020600b0160008381526020019081526020016000206005015492508195505b80806001019150506108ac565b5050505050919050565b6000809054906101000a900473ffffffffffffffffffffffffffffffffffffffff1673ffffffffffffffffffffffffffffffffffffffff163373ffffffffffffffffffffffffffffffffffffffff1614610a04576040517f08c379a00000000000000000000000000000000000000000000000000000000081526004016109fb90612f70565b60405180910390fd5b856000811415610a49576040517f08c379a0000000000000000000000000000000000000000000000000000000008152600401610a4090612e70565b60405180910390fd5b8680600360008381526020019081526020016000206000015414610aa2576040517f08c379a0000000000000000000000000000000000000000000000000000000008152600401610a9990612ef0565b60405180910390fd5b866000811415610ae7576040517f08c379a0000000000000000000000000000000000000000000000000000000008152600401610ade90612e70565b60405180910390fd5b6000429050600360008b8152602001908152602001600020600201548110610b44576040517f08c379a0000000000000000000000000000000000000000000000000000000008152600401610b3b90612df0565b60405180910390fd5b86600460008981526020019081526020016000206000015414610b9c576040517f08c379a0000000000000000000000000000000000000000000000000000000008152600401610b9390612db0565b60405180910390fd5b85600460008881526020019081526020016000206000015414610bf4576040517f08c379a0000000000000000000000000000000000000000000000000000000008152600401610beb90612f50565b60405180910390fd5b84600460008781526020019081526020016000206000015414610c4c576040517f08c379a0000000000000000000000000000000000000000000000000000000008152600401610c4390612ed0565b60405180910390fd5b88600360008c8152602001908152602001600020600b0160008b8152602001908152602001600020600001541415610d7e5787600360008c8152602001908152602001600020600b0160008b81526020019081526020016000206001019080519060200190610cbc9291906121a9565b5086600360008c8152602001908152602001600020600b0160008b81526020019081526020016000206002018190555085600360008c8152602001908152602001600020600b0160008b81526020019081526020016000206003018190555084600360008c8152602001908152602001600020600b0160008b81526020019081526020016000206004018190555080600360008c8152602001908152602001600020600b0160008b815260200190815260200160002060070181905550610ead565b600360008b8152602001908152602001600020600a018990806001815401808255809150509060018203906000526020600020016000909192909190915055506040518061010001604052808a81526020018981526020018881526020018781526020018681526020016000815260200182815260200182815250600360008c8152602001908152602001600020600b0160008b8152602001908152602001600020600082015181600001556020820151816001019080519060200190610e46929190612229565b5060408201518160020155606082015181600301556080820151816004015560a0820151816005015560c0820151816006015560e08201518160070155905050600360008b8152602001908152602001600020600501600081548092919060010191905055505b50505050505050505050565b6000809054906101000a900473ffffffffffffffffffffffffffffffffffffffff1673ffffffffffffffffffffffffffffffffffffffff163373ffffffffffffffffffffffffffffffffffffffff1614610f48576040517f08c379a0000000000000000000000000000000000000000000000000000000008152600401610f3f90612f70565b60405180910390fd5b836000811415610f8d576040517f08c379a0000000000000000000000000000000000000000000000000000000008152600401610f8490612e70565b60405180910390fd5b600042905085600360008881526020019081526020016000206000015414156110895760036000878152602001908152602001600020600201548110611008576040517f08c379a0000000000000000000000000000000000000000000000000000000008152600401610fff90612df0565b60405180910390fd5b846003600088815260200190815260200160002060010190805190602001906110329291906121a9565b508360036000888152602001908152602001600020600201819055508260036000888152602001908152602001600020600301819055508060036000888152602001908152602001600020600901819055506111b4565b60606040518061016001604052808881526020018781526020018681526020018581526020016000815260200160008152602001600081526020016000151581526020018381526020018381526020018281525060036000898152602001908152602001600020600082015181600001556020820151816001019080519060200190611116929190612229565b5060408201518160020155606082015181600301556080820151816004015560a0820151816005015560c0820151816006015560e08201518160070160006101000a81548160ff0219169083151502179055506101008201518160080155610120820151816009015561014082015181600a01908051906020019061119c9291906122a9565b50905050600160008154809291906001019190505550505b505050505050565b6003602052806000526040600020600091509050806000015490806001018054600181600116156101000203166002900480601f01602080910402602001604051908101604052809291908181526020018280546001816001161561010002031660029004801561126e5780601f106112435761010080835404028352916020019161126e565b820191906000526020600020905b81548152906001019060200180831161125157829003601f168201915b5050505050908060020154908060030154908060040154908060050154908060060154908060070160009054906101000a900460ff1690806008015490806009015490508a565b6000806000806000866000811415611302576040517f08c379a00000000000000000000000000000000000000000000000000000000081526004016112f990612e70565b60405180910390fd5b878060036000838152602001908152602001600020600001541461135b576040517f08c379a000000000000000000000000000000000000000000000000000000000815260040161135290612ef0565b60405180910390fd5b60008860405160200161136e9190612d8e565b60405160208183030381529060405280519060200120905080600360008c8152602001908152602001600020600c01600083815260200190815260200160002060010154146113f2576040517f08c379a00000000000000000000000000000000000000000000000000000000081526004016113e990612e30565b60405180910390fd5b6113fa6122f6565b600360008c8152602001908152602001600020600c0160008381526020019081526020016000206040518060a001604052908160008201548152602001600182015481526020016002820160009054906101000a900460ff161515151581526020016003820154815260200160048201548152505090508060000151816020015182604001518360600151846080015198509850985098509850505050509295509295909350565b60608160008114156114e9576040517f08c379a00000000000000000000000000000000000000000000000000000000081526004016114e090612e70565b60405180910390fd5b8280600360008381526020019081526020016000206000015414611542576040517f08c379a000000000000000000000000000000000000000000000000000000000815260040161153990612ef0565b60405180910390fd5b606060036000868152602001908152602001600020600a018054905060405190808252806020026020018201604052801561159757816020015b61158461232a565b81526020019060019003908161157c5790505b509050600080600090505b60036000888152602001908152602001600020600a01805490508110156117305760036000888152602001908152602001600020600a0181815481106115e457fe5b9060005260206000200154915060036000888152602001908152602001600020600b0160008381526020019081526020016000206040518061010001604052908160008201548152602001600182018054600181600116156101000203166002900480601f0160208091040260200160405190810160405280929190818152602001828054600181600116156101000203166002900480156116c75780601f1061169c576101008083540402835291602001916116c7565b820191906000526020600020905b8154815290600101906020018083116116aa57829003601f168201915b50505050508152602001600282015481526020016003820154815260200160048201548152602001600582015481526020016006820154815260200160078201548152505083828151811061171857fe5b602002602001018190525080806001019150506115a2565b5050505050919050565b60015481565b826000811415611785576040517f08c379a000000000000000000000000000000000000000000000000000000000815260040161177c90612e70565b60405180910390fd5b8260008114156117ca576040517f08c379a00000000000000000000000000000000000000000000000000000000081526004016117c190612e70565b60405180910390fd5b8480600360008381526020019081526020016000206000015414611823576040517f08c379a000000000000000000000000000000000000000000000000000000000815260040161181a90612ef0565b60405180910390fd5b61182d868561052b565b60004290506003600088815260200190815260200160002060020154811015801561186e575060036000888152602001908152602001600020600301548111155b6118ad576040517f08c379a00000000000000000000000000000000000000000000000000000000081526004016118a490612e50565b60405180910390fd5b6000856040516020016118c09190612d8e565b60405160208183030381529060405280519060200120905080600360008a8152602001908152602001600020600c0160008381526020019081526020016000206001015414611944576040517f08c379a000000000000000000000000000000000000000000000000000000000815260040161193b90612eb0565b60405180910390fd5b60036000898152602001908152602001600020600c01600082815260200190815260200160002060020160009054906101000a900460ff16156119bc576040517f08c379a00000000000000000000000000000000000000000000000000000000081526004016119b390612f30565b60405180910390fd5b86600360008a8152602001908152602001600020600b0160008981526020019081526020016000206000015414611a28576040517f08c379a0000000000000000000000000000000000000000000000000000000008152600401611a1f90612dd0565b60405180910390fd5b86600360008a8152602001908152602001600020600c016000838152602001908152602001600020600001819055506001600360008a8152602001908152602001600020600c01600083815260200190815260200160002060020160006101000a81548160ff02191690831515021790555081600360008a8152602001908152602001600020600c0160008381526020019081526020016000206004018190555060036000898152602001908152602001600020600b0160008881526020019081526020016000206005016000815480929190600101919050555081600360008a8152602001908152602001600020600b01600089815260200190815260200160002060070181905550600360008981526020019081526020016000206004016000815480929190600101919050555081600360008a8152602001908152602001600020600901819055507f52d5c01ece1a2c78d4c9854554a1fe8a1c5f98f759107e2f3bee72d02a16fcd58888600360008c8152602001908152602001600020600b0160008b815260200190815260200160002060050154600360008d81526020019081526020016000206004015486604051611bea95949392919061319b565b60405180910390a15050505050505050565b6000809054906101000a900473ffffffffffffffffffffffffffffffffffffffff1673ffffffffffffffffffffffffffffffffffffffff163373ffffffffffffffffffffffffffffffffffffffff1614611c8b576040517f08c379a0000000000000000000000000000000000000000000000000000000008152600401611c8290612f70565b60405180910390fd5b806000811415611cd0576040517f08c379a0000000000000000000000000000000000000000000000000000000008152600401611cc790612e70565b60405180910390fd5b8180600360008381526020019081526020016000206000015414611d29576040517f08c379a0000000000000000000000000000000000000000000000000000000008152600401611d2090612ef0565b60405180910390fd5b60036000848152602001908152602001600020600301544211611d81576040517f08c379a0000000000000000000000000000000000000000000000000000000008152600401611d7890612e90565b60405180910390fd5b6003600084815260200190815260200160002060070160009054906101000a900460ff1615611de5576040517f08c379a0000000000000000000000000000000000000000000000000000000008152600401611ddc90612e10565b60405180910390fd5b60016003600085815260200190815260200160002060070160006101000a81548160ff0219169083151502179055507f32e2c12037f9600b91a766ce53eab6909f3bdb865851cd9a8c7fafbdf249a9ce83611e3f8561079c565b604051611e4d929190613172565b60405180910390a1505050565b60006060600080600080600080896000811415611eac576040517f08c379a0000000000000000000000000000000000000000000000000000000008152600401611ea390612e70565b60405180910390fd5b8a80600360008381526020019081526020016000206000015414611f05576040517f08c379a0000000000000000000000000000000000000000000000000000000008152600401611efc90612ef0565b60405180910390fd5b8a600360008e8152602001908152602001600020600b0160008d81526020019081526020016000206000015414611f71576040517f08c379a0000000000000000000000000000000000000000000000000000000008152600401611f6890612dd0565b60405180910390fd5b611f7961236f565b600360008e8152602001908152602001600020600b0160008d81526020019081526020016000206040518061010001604052908160008201548152602001600182018054600181600116156101000203166002900480601f01602080910402602001604051908101604052809291908181526020018280546001816001161561010002031660029004801561204f5780601f106120245761010080835404028352916020019161204f565b820191906000526020600020905b81548152906001019060200180831161203257829003601f168201915b5050505050815260200160028201548152602001600382015481526020016004820154815260200160058201548152602001600682015481526020016007820154815250509050806000015181602001518260400151836060015184608001518560a001518660c001518760e001518696509a509a509a509a509a509a509a509a505050509295985092959890939650565b6004602052806000526040600020600091509050806000015490806001018054600181600116156101000203166002900480601f0160208091040260200160405190810160405280929190818152602001828054600181600116156101000203166002900480156121935780601f1061216857610100808354040283529160200191612193565b820191906000526020600020905b81548152906001019060200180831161217657829003601f168201915b5050505050908060020154908060030154905084565b828054600181600116156101000203166002900490600052602060002090601f016020900481019282601f106121ea57805160ff1916838001178555612218565b82800160010185558215612218579182015b828111156122175782518255916020019190600101906121fc565b5b50905061222591906123b4565b5090565b828054600181600116156101000203166002900490600052602060002090601f016020900481019282601f1061226a57805160ff1916838001178555612298565b82800160010185558215612298579182015b8281111561229757825182559160200191906001019061227c565b5b5090506122a591906123b4565b5090565b8280548282559060005260206000209081019282156122e5579160200282015b828111156122e45782518255916020019190600101906122c9565b5b5090506122f291906123b4565b5090565b6040518060a00160405280600081526020016000801916815260200160001515815260200160008152602001600081525090565b60405180610100016040528060008152602001606081526020016000815260200160008152602001600081526020016000815260200160008152602001600081525090565b60405180610100016040528060008152602001606081526020016000815260200160008152602001600081526020016000815260200160008152602001600081525090565b6123d691905b808211156123d25760008160009055506001016123ba565b5090565b90565b600082601f8301126123ea57600080fd5b81356123fd6123f88261321b565b6131ee565b9150808252602083016020830185838301111561241957600080fd5b61242483828461330a565b50505092915050565b60008135905061243c8161335d565b92915050565b60006020828403121561245457600080fd5b60006124628482850161242d565b91505092915050565b6000806040838503121561247e57600080fd5b600061248c8582860161242d565b925050602083013567ffffffffffffffff8111156124a957600080fd5b6124b5858286016123d9565b9150509250929050565b600080600080608085870312156124d557600080fd5b60006124e38782880161242d565b945050602085013567ffffffffffffffff81111561250057600080fd5b61250c878288016123d9565b935050604061251d8782880161242d565b925050606061252e8782880161242d565b91505092959194509250565b6000806040838503121561254d57600080fd5b600061255b8582860161242d565b925050602061256c8582860161242d565b9150509250929050565b60008060006060848603121561258b57600080fd5b60006125998682870161242d565b93505060206125aa8682870161242d565b925050604084013567ffffffffffffffff8111156125c757600080fd5b6125d3868287016123d9565b9150509250925092565b60008060008060008060c087890312156125f657600080fd5b600061260489828a0161242d565b965050602061261589828a0161242d565b955050604087013567ffffffffffffffff81111561263257600080fd5b61263e89828a016123d9565b945050606061264f89828a0161242d565b935050608061266089828a0161242d565b92505060a061267189828a0161242d565b9150509295509295509295565b600061268a8383612c83565b905092915050565b61269b816132b8565b82525050565b60006126ac82613257565b6126b68185613285565b9350836020820285016126c885613247565b8060005b8581101561270457848403895281516126e5858261267e565b94506126f083613278565b925060208a019950506001810190506126cc565b50829750879550505050505092915050565b61271f816132ca565b82525050565b61272e816132d6565b82525050565b600061273f8261326d565b61274981856132a7565b9350612759818560208601613319565b6127628161334c565b840191505092915050565b600061277882613262565b6127828185613296565b9350612792818560208601613319565b61279b8161334c565b840191505092915050565b60006127b182613262565b6127bb81856132a7565b93506127cb818560208601613319565b6127d48161334c565b840191505092915050565b60006127ec6029836132a7565b91507f43686169726d616e494420646f6573206e6f7420657869737420696e206f757260008301527f207265636f7264732e00000000000000000000000000000000000000000000006020830152604082019050919050565b60006128526014836132a7565b91507f5465616d20646f6573206e6f742065786973742e0000000000000000000000006000830152602082019050919050565b60006128926025836132a7565b91507f456c656374696f6e20686173206569746865722073746172746564206f72206560008301527f6e6465642e0000000000000000000000000000000000000000000000000000006020830152604082019050919050565b60006128f86024836132a7565b91507f656e64456c656374696f6e2068617320616c7265616479206265656e2063616c60008301527f6c65642e000000000000000000000000000000000000000000000000000000006020830152604082019050919050565b600061295e601c836132a7565b91507f566f74696e6720546f6b656e20646f6573206e6f742065786973742e000000006000830152602082019050919050565b600061299e601b836132a7565b91507f4e6f74207468652074696d6520746f206361737420766f7465732e00000000006000830152602082019050919050565b60006129de601a836132a7565b91507f4944732073686f756c64206e6f7420657175616c207a65726f2e0000000000006000830152602082019050919050565b6000612a1e6012836132a7565b91507f456c656374696f6e206e6f74206f7665722e00000000000000000000000000006000830152602082019050919050565b6000612a5e601c836132a7565b91507f566f74696e6720746f6b656e20646f6573206e6f742065786973742e000000006000830152602082019050919050565b6000612a9e602a836132a7565b91507f547265617375726572494420646f6573206e6f7420657869737420696e206f7560008301527f72207265636f7264732e000000000000000000000000000000000000000000006020830152604082019050919050565b6000612b046018836132a7565b91507f456c656374696f6e20646f6573206e6f742065786973742e00000000000000006000830152602082019050919050565b6000612b44601b836132a7565b91507f566f74696e6720746f6b656e20616c72656164792061646465642e00000000006000830152602082019050919050565b6000612b846022836132a7565b91507f566f7465722068617320616c7265616479206361737420746865697220766f7460008301527f652e0000000000000000000000000000000000000000000000000000000000006020830152604082019050919050565b6000612bea6033836132a7565b91507f5365637265746172792047656e6572616c20494420646f6573206e6f7420657860008301527f69737420696e206f7572207265636f7264732e000000000000000000000000006020830152604082019050919050565b6000612c50601f836132a7565b91507f4f6e6c79207468652043726561746f722063616e2063616c6c20746869732e006000830152602082019050919050565b600061010083016000830151612c9c6000860182612d33565b5060208301518482036020860152612cb4828261276d565b9150506040830151612cc96040860182612d33565b506060830151612cdc6060860182612d33565b506080830151612cef6080860182612d33565b5060a0830151612d0260a0860182612d33565b5060c0830151612d1560c0860182612d33565b5060e0830151612d2860e0860182612d33565b508091505092915050565b612d3c81613300565b82525050565b612d4b81613300565b82525050565b6000602082019050612d666000830184612692565b92915050565b60006020820190508181036000830152612d8681846126a1565b905092915050565b60006020820190508181036000830152612da88184612734565b905092915050565b60006020820190508181036000830152612dc9816127df565b9050919050565b60006020820190508181036000830152612de981612845565b9050919050565b60006020820190508181036000830152612e0981612885565b9050919050565b60006020820190508181036000830152612e29816128eb565b9050919050565b60006020820190508181036000830152612e4981612951565b9050919050565b60006020820190508181036000830152612e6981612991565b9050919050565b60006020820190508181036000830152612e89816129d1565b9050919050565b60006020820190508181036000830152612ea981612a11565b9050919050565b60006020820190508181036000830152612ec981612a51565b9050919050565b60006020820190508181036000830152612ee981612a91565b9050919050565b60006020820190508181036000830152612f0981612af7565b9050919050565b60006020820190508181036000830152612f2981612b37565b9050919050565b60006020820190508181036000830152612f4981612b77565b9050919050565b60006020820190508181036000830152612f6981612bdd565b9050919050565b60006020820190508181036000830152612f8981612c43565b9050919050565b6000602082019050612fa56000830184612d42565b92915050565b600060a082019050612fc06000830188612d42565b612fcd6020830187612725565b612fda6040830186612716565b612fe76060830185612d42565b612ff46080830184612d42565b9695505050505050565b600061010082019050613014600083018b612d42565b8181036020830152613026818a612734565b90506130356040830189612d42565b6130426060830188612d42565b61304f6080830187612d42565b61305c60a0830186612d42565b61306960c0830185612d42565b61307660e0830184612d42565b9998505050505050505050565b60006080820190506130986000830187612d42565b81810360208301526130aa81866127a6565b90506130b96040830185612d42565b6130c66060830184612d42565b95945050505050565b6000610140820190506130e5600083018d612d42565b81810360208301526130f7818c6127a6565b9050613106604083018b612d42565b613113606083018a612d42565b6131206080830189612d42565b61312d60a0830188612d42565b61313a60c0830187612d42565b61314760e0830186612716565b613155610100830185612d42565b613163610120830184612d42565b9b9a5050505050505050505050565b60006040820190506131876000830185612d42565b6131946020830184612d42565b9392505050565b600060a0820190506131b06000830188612d42565b6131bd6020830187612d42565b6131ca6040830186612d42565b6131d76060830185612d42565b6131e46080830184612d42565b9695505050505050565b6000604051905081810181811067ffffffffffffffff8211171561321157600080fd5b8060405250919050565b600067ffffffffffffffff82111561323257600080fd5b601f19601f8301169050602081019050919050565b6000819050602082019050919050565b600081519050919050565b600081519050919050565b600081519050919050565b6000602082019050919050565b600082825260208201905092915050565b600082825260208201905092915050565b600082825260208201905092915050565b60006132c3826132e0565b9050919050565b60008115159050919050565b6000819050919050565b600073ffffffffffffffffffffffffffffffffffffffff82169050919050565b6000819050919050565b82818337600083830152505050565b60005b8381101561333757808201518184015260208101905061331c565b83811115613346576000848401525b50505050565b6000601f19601f8301169050919050565b61336681613300565b811461337157600080fd5b5056fea365627a7a72315820a845c49d11918661a2e9f58aabff14b498b62683f22a2ae259bc8dc6a93999d86c6578706572696d656e74616cf564736f6c63430005100040",
  "source": "pragma solidity >=0.4.21 <0.7.0;\npragma experimental ABIEncoderV2;\n\ncontract Voting {\n    address public creator;\n    uint public electionCount = 0;\n    uint public aspirantCount = 0;\n\n    struct Election {\n        uint electionId;\n        string name;\n        uint start_timestamp;\n        uint end_timestamp;\n        uint voteCount;\n        uint teamCount;\n        uint tokenCount;\n        bool ended;\n        uint addedAt;\n        uint updatedAt;\n        uint[] teamIds; // apparently, you can't loop over mappings or their keys\n        mapping(uint => Team) teams;\n        mapping(bytes32 => Ballot) votingTokens;\n    }\n\n    struct Aspirant {\n        uint aspirantId;\n        string name;\n        uint addedAt;\n        uint updatedAt;\n    }\n\n    struct Team {\n        uint teamId;\n        string name;\n        uint chairmanId;\n        uint secGenId;\n        uint treasurerId;\n        uint votes;\n        uint addedAt;\n        uint updatedAt;\n    }\n\n    struct Ballot {\n        uint teamId;\n        bytes32 votingToken; // a hash of the actual voting token\n        bool cast;\n        uint addedAt;\n        uint updatedAt;\n    }\n\n    mapping(uint => Election) public elections;\n    mapping(uint => Aspirant) public aspirants;\n\n    event Cast(uint _electionId, uint _teamId, uint teamCount, uint totalCount, uint castAt);\n    event ElectionEnded(uint _electionId, uint _winningTeamId);\n\n    modifier onlyCreator() {\n        require(msg.sender == creator, \"Only the Creator can call this.\");\n        _;\n    }\n\n    modifier notZero(uint _n) {\n        require(_n != 0, \"IDs should not equal zero.\");\n        _;\n    }\n\n    modifier electionExists(uint _electionId) {\n        require(elections[_electionId].electionId == _electionId, \"Election does not exist.\");\n        _;\n    }\n\n\n    constructor() public {\n        creator = msg.sender;\n    }\n\n    function setElection(uint _electionId, string memory _name, uint _start_timestamp, uint _end_timestamp)\n    public\n    onlyCreator()\n    notZero(_electionId)\n    {\n        uint time = now;\n        if (elections[_electionId].electionId == _electionId) {\n            require(time < elections[_electionId].start_timestamp, \"Election has either started or ended.\");\n            elections[_electionId].name = _name;\n            elections[_electionId].start_timestamp = _start_timestamp;\n            elections[_electionId].end_timestamp = _end_timestamp;\n            elections[_electionId].updatedAt = time;\n        } else {\n            uint[] memory teamIds;\n            elections[_electionId] = Election(_electionId, _name, _start_timestamp, _end_timestamp, 0, 0, 0, false, time, time, teamIds);\n            electionCount++;\n        }\n    }\n\n    function setAspirant(uint _aspirantId, string memory _name)\n    public\n    onlyCreator()\n    notZero(_aspirantId)\n    {\n        uint time = now;\n        if (aspirants[_aspirantId].aspirantId == _aspirantId) {\n            aspirants[_aspirantId].name = _name;\n            aspirants[_aspirantId].updatedAt = time;\n        } else {\n            aspirants[_aspirantId] = Aspirant(_aspirantId, _name, time, time);\n            aspirantCount++;\n        }\n    }\n\n    function setTeam(uint _electionId, uint _teamId, string memory _name, uint _chairmanId, uint _secGenId, uint _treasurerId)\n    public\n    onlyCreator()\n    notZero(_electionId)\n    electionExists(_electionId)\n    notZero(_teamId)\n    {\n        uint time = now;\n        require(time < elections[_electionId].start_timestamp, \"Election has either started or ended.\");\n        require(aspirants[_chairmanId].aspirantId == _chairmanId, \"ChairmanID does not exist in our records.\");\n        require(aspirants[_secGenId].aspirantId == _secGenId, \"Secretary General ID does not exist in our records.\");\n        require(aspirants[_treasurerId].aspirantId == _treasurerId, \"TreasurerID does not exist in our records.\");\n        if (elections[_electionId].teams[_teamId].teamId == _teamId) {\n            elections[_electionId].teams[_teamId].name = _name;\n            elections[_electionId].teams[_teamId].chairmanId = _chairmanId;\n            elections[_electionId].teams[_teamId].secGenId = _secGenId;\n            elections[_electionId].teams[_teamId].treasurerId = _treasurerId;\n            elections[_electionId].teams[_teamId].updatedAt = time;\n        } else {\n            elections[_electionId].teamIds.push(_teamId);\n            elections[_electionId].teams[_teamId] = Team(_teamId, _name, _chairmanId, _secGenId, _treasurerId, 0, time, time);\n            elections[_electionId].teamCount++;\n        }\n    }\n\n    function setVotingToken(uint _electionId, string memory _token)\n    public\n    onlyCreator()\n    notZero(_electionId)\n    {\n        uint time = now;\n        bytes32 _hashedToken = keccak256(abi.encode(_token));\n        require(elections[_electionId].votingTokens[_hashedToken].votingToken != _hashedToken, \"Voting token already added.\");\n        uint tokenCount = elections[_electionId].tokenCount;\n        elections[_electionId].votingTokens[_hashedToken] = Ballot(tokenCount, _hashedToken, false, time, time);\n        elections[_electionId].tokenCount++;\n        elections[_electionId].updatedAt = time;\n    }\n\n    function cast(uint _electionId, uint _teamId, string memory _votingToken)\n    public\n    notZero(_electionId)\n    notZero(_teamId)\n    electionExists(_electionId)\n    {\n        setVotingToken(_electionId, _votingToken);\n        uint time = now;\n        require(time >= elections[_electionId].start_timestamp && time <= elections[_electionId].end_timestamp, \"Not the time to cast votes.\");\n        bytes32 _hashedToken = keccak256(abi.encode(_votingToken));\n        require(elections[_electionId].votingTokens[_hashedToken].votingToken == _hashedToken, \"Voting token does not exist.\");\n        require(!elections[_electionId].votingTokens[_hashedToken].cast, \"Voter has already cast their vote.\");\n        require(elections[_electionId].teams[_teamId].teamId == _teamId, \"Team does not exist.\");\n\n        // register the vote\n        elections[_electionId].votingTokens[_hashedToken].teamId = _teamId;\n        elections[_electionId].votingTokens[_hashedToken].cast = true;\n        elections[_electionId].votingTokens[_hashedToken].updatedAt = time;\n        elections[_electionId].teams[_teamId].votes++;\n        elections[_electionId].teams[_teamId].updatedAt = time;\n        elections[_electionId].voteCount++;\n        elections[_electionId].updatedAt = time;\n        emit Cast(_electionId, _teamId, elections[_electionId].teams[_teamId].votes,  elections[_electionId].voteCount, time);\n    }\n\n    function endElection(uint _electionId)\n    public\n    onlyCreator()\n    notZero(_electionId)\n    electionExists(_electionId)\n    {\n        require(now > elections[_electionId].end_timestamp, \"Election not over.\");\n        require(!elections[_electionId].ended, \"endElection has already been called.\");\n        elections[_electionId].ended = true;\n        emit ElectionEnded(_electionId, getWinner(_electionId));\n    }\n\n    function getWinner(uint _electionId)\n    public\n    notZero(_electionId)\n    electionExists(_electionId)\n    view returns (uint _winningTeamId)\n    {\n        require(elections[_electionId].ended, \"Election not over.\");\n        uint winningVoteCount = 0;\n        uint _teamId;\n        for (uint _i = 0; _i < elections[_electionId].teamIds.length; _i++) {\n            _teamId = elections[_electionId].teamIds[_i];\n            if (elections[_electionId].teams[_teamId].votes > winningVoteCount) {\n                winningVoteCount = elections[_electionId].teams[_teamId].votes;\n                _winningTeamId = _teamId;\n            }\n        }\n    }\n\n    function getTeam(uint _electionId, uint _teamId)\n    public\n    notZero(_electionId)\n    electionExists(_electionId)\n    view returns (uint teamId, string memory name, uint chairmanId, uint secGenId, uint treasurerId, uint votes, uint addedAt, uint updatedAt)\n    {\n        require(elections[_electionId].teams[_teamId].teamId == _teamId, \"Team does not exist.\");\n        Team memory t = elections[_electionId].teams[_teamId];\n        return (t.teamId, t.name, t.chairmanId, t.secGenId, t.treasurerId, t.votes, t.addedAt, t.updatedAt);\n    }\n\n    function getBallot(uint _electionId, string memory _token)\n    public\n    notZero(_electionId)\n    electionExists(_electionId)\n    view returns (uint teamId, bytes32 votingToken, bool voted, uint addedAt, uint updatedAt)\n    {\n        bytes32 _hashedToken = keccak256(abi.encode(_token));\n        require(elections[_electionId].votingTokens[_hashedToken].votingToken == _hashedToken, \"Voting Token does not exist.\");\n        Ballot memory b = elections[_electionId].votingTokens[_hashedToken];\n        return (b.teamId, b.votingToken, b.cast, b.addedAt, b.updatedAt);\n    }\n\n    function getResults(uint _electionId)\n    public\n    notZero(_electionId)\n    electionExists(_electionId)\n    view returns (Team[] memory)\n    {\n        Team[] memory teams = new Team[](elections[_electionId].teamIds.length);\n        uint _teamId;\n        for (uint _i = 0; _i < elections[_electionId].teamIds.length; _i++) {\n            _teamId = elections[_electionId].teamIds[_i];\n            teams[_i] = elections[_electionId].teams[_teamId];\n        }\n    }\n}\n",
  "sourcePath": "/home/stephen/Projects/voting-system-blockchain/contracts/Voting.sol",
  "compiler": {
    "name": "solc",
    "version": "0.5.16+commit.9c3226ce.Emscripten.clang"
  },
  "schemaVersion": "3.0.23",
  "updatedAt": "2020-05-10T12:54:40.568Z",
  "networkType": "ethereum",
  "devdoc": {
    "methods": {}
  },
  "userdoc": {
    "methods": {}
  }
}