{
  "contractName": "Voting",
  "abi": [
    {
      "inputs": [],
      "payable": false,
      "stateMutability": "nonpayable",
      "type": "constructor"
    },
    {
      "anonymous": false,
      "inputs": [
        {
          "indexed": false,
          "internalType": "uint256",
          "name": "_electionId",
          "type": "uint256"
        },
        {
          "indexed": false,
          "internalType": "uint256",
          "name": "_teamId",
          "type": "uint256"
        },
        {
          "indexed": false,
          "internalType": "uint256",
          "name": "teamCount",
          "type": "uint256"
        },
        {
          "indexed": false,
          "internalType": "uint256",
          "name": "totalCount",
          "type": "uint256"
        },
        {
          "indexed": false,
          "internalType": "uint256",
          "name": "castAt",
          "type": "uint256"
        }
      ],
      "name": "Cast",
      "type": "event"
    },
    {
      "anonymous": false,
      "inputs": [
        {
          "indexed": false,
          "internalType": "uint256",
          "name": "_electionId",
          "type": "uint256"
        },
        {
          "indexed": false,
          "internalType": "uint256",
          "name": "_winningTeamId",
          "type": "uint256"
        }
      ],
      "name": "ElectionEnded",
      "type": "event"
    },
    {
      "constant": true,
      "inputs": [],
      "name": "aspirantCount",
      "outputs": [
        {
          "internalType": "uint256",
          "name": "",
          "type": "uint256"
        }
      ],
      "payable": false,
      "stateMutability": "view",
      "type": "function"
    },
    {
      "constant": true,
      "inputs": [
        {
          "internalType": "uint256",
          "name": "",
          "type": "uint256"
        }
      ],
      "name": "aspirants",
      "outputs": [
        {
          "internalType": "uint256",
          "name": "aspirantId",
          "type": "uint256"
        },
        {
          "internalType": "string",
          "name": "name",
          "type": "string"
        },
        {
          "internalType": "uint256",
          "name": "addedAt",
          "type": "uint256"
        },
        {
          "internalType": "uint256",
          "name": "updatedAt",
          "type": "uint256"
        }
      ],
      "payable": false,
      "stateMutability": "view",
      "type": "function"
    },
    {
      "constant": true,
      "inputs": [],
      "name": "creator",
      "outputs": [
        {
          "internalType": "address",
          "name": "",
          "type": "address"
        }
      ],
      "payable": false,
      "stateMutability": "view",
      "type": "function"
    },
    {
      "constant": true,
      "inputs": [],
      "name": "electionCount",
      "outputs": [
        {
          "internalType": "uint256",
          "name": "",
          "type": "uint256"
        }
      ],
      "payable": false,
      "stateMutability": "view",
      "type": "function"
    },
    {
      "constant": true,
      "inputs": [
        {
          "internalType": "uint256",
          "name": "",
          "type": "uint256"
        }
      ],
      "name": "elections",
      "outputs": [
        {
          "internalType": "uint256",
          "name": "electionId",
          "type": "uint256"
        },
        {
          "internalType": "string",
          "name": "name",
          "type": "string"
        },
        {
          "internalType": "uint256",
          "name": "start_timestamp",
          "type": "uint256"
        },
        {
          "internalType": "uint256",
          "name": "end_timestamp",
          "type": "uint256"
        },
        {
          "internalType": "uint256",
          "name": "voteCount",
          "type": "uint256"
        },
        {
          "internalType": "uint256",
          "name": "teamCount",
          "type": "uint256"
        },
        {
          "internalType": "uint256",
          "name": "tokenCount",
          "type": "uint256"
        },
        {
          "internalType": "bool",
          "name": "ended",
          "type": "bool"
        },
        {
          "internalType": "uint256",
          "name": "addedAt",
          "type": "uint256"
        },
        {
          "internalType": "uint256",
          "name": "updatedAt",
          "type": "uint256"
        }
      ],
      "payable": false,
      "stateMutability": "view",
      "type": "function"
    },
    {
      "constant": false,
      "inputs": [
        {
          "internalType": "uint256",
          "name": "_electionId",
          "type": "uint256"
        },
        {
          "internalType": "string",
          "name": "_name",
          "type": "string"
        },
        {
          "internalType": "uint256",
          "name": "_start_timestamp",
          "type": "uint256"
        },
        {
          "internalType": "uint256",
          "name": "_end_timestamp",
          "type": "uint256"
        }
      ],
      "name": "setElection",
      "outputs": [],
      "payable": false,
      "stateMutability": "nonpayable",
      "type": "function"
    },
    {
      "constant": false,
      "inputs": [
        {
          "internalType": "uint256",
          "name": "_aspirantId",
          "type": "uint256"
        },
        {
          "internalType": "string",
          "name": "_name",
          "type": "string"
        }
      ],
      "name": "setAspirant",
      "outputs": [],
      "payable": false,
      "stateMutability": "nonpayable",
      "type": "function"
    },
    {
      "constant": false,
      "inputs": [
        {
          "internalType": "uint256",
          "name": "_electionId",
          "type": "uint256"
        },
        {
          "internalType": "uint256",
          "name": "_teamId",
          "type": "uint256"
        },
        {
          "internalType": "string",
          "name": "_name",
          "type": "string"
        },
        {
          "internalType": "uint256",
          "name": "_chairmanId",
          "type": "uint256"
        },
        {
          "internalType": "uint256",
          "name": "_secGenId",
          "type": "uint256"
        },
        {
          "internalType": "uint256",
          "name": "_treasurerId",
          "type": "uint256"
        }
      ],
      "name": "setTeam",
      "outputs": [],
      "payable": false,
      "stateMutability": "nonpayable",
      "type": "function"
    },
    {
      "constant": false,
      "inputs": [
        {
          "internalType": "uint256",
          "name": "_electionId",
          "type": "uint256"
        },
        {
          "internalType": "string",
          "name": "_token",
          "type": "string"
        }
      ],
      "name": "setVotingToken",
      "outputs": [],
      "payable": false,
      "stateMutability": "nonpayable",
      "type": "function"
    },
    {
      "constant": false,
      "inputs": [
        {
          "internalType": "uint256",
          "name": "_electionId",
          "type": "uint256"
        },
        {
          "internalType": "uint256",
          "name": "_teamId",
          "type": "uint256"
        },
        {
          "internalType": "string",
          "name": "_votingToken",
          "type": "string"
        }
      ],
      "name": "cast",
      "outputs": [],
      "payable": false,
      "stateMutability": "nonpayable",
      "type": "function"
    },
    {
      "constant": false,
      "inputs": [
        {
          "internalType": "uint256",
          "name": "_electionId",
          "type": "uint256"
        }
      ],
      "name": "endElection",
      "outputs": [],
      "payable": false,
      "stateMutability": "nonpayable",
      "type": "function"
    },
    {
      "constant": true,
      "inputs": [
        {
          "internalType": "uint256",
          "name": "_electionId",
          "type": "uint256"
        }
      ],
      "name": "getWinner",
      "outputs": [
        {
          "internalType": "uint256",
          "name": "_winningTeamId",
          "type": "uint256"
        }
      ],
      "payable": false,
      "stateMutability": "view",
      "type": "function"
    },
    {
      "constant": true,
      "inputs": [
        {
          "internalType": "uint256",
          "name": "_electionId",
          "type": "uint256"
        },
        {
          "internalType": "uint256",
          "name": "_teamId",
          "type": "uint256"
        }
      ],
      "name": "getTeam",
      "outputs": [
        {
          "internalType": "uint256",
          "name": "teamId",
          "type": "uint256"
        },
        {
          "internalType": "string",
          "name": "name",
          "type": "string"
        },
        {
          "internalType": "uint256",
          "name": "chairmanId",
          "type": "uint256"
        },
        {
          "internalType": "uint256",
          "name": "secGenId",
          "type": "uint256"
        },
        {
          "internalType": "uint256",
          "name": "treasurerId",
          "type": "uint256"
        },
        {
          "internalType": "uint256",
          "name": "votes",
          "type": "uint256"
        },
        {
          "internalType": "uint256",
          "name": "addedAt",
          "type": "uint256"
        },
        {
          "internalType": "uint256",
          "name": "updatedAt",
          "type": "uint256"
        }
      ],
      "payable": false,
      "stateMutability": "view",
      "type": "function"
    },
    {
      "constant": true,
      "inputs": [
        {
          "internalType": "uint256",
          "name": "_electionId",
          "type": "uint256"
        },
        {
          "internalType": "string",
          "name": "_token",
          "type": "string"
        }
      ],
      "name": "getBallot",
      "outputs": [
        {
          "internalType": "uint256",
          "name": "teamId",
          "type": "uint256"
        },
        {
          "internalType": "bytes32",
          "name": "votingToken",
          "type": "bytes32"
        },
        {
          "internalType": "bool",
          "name": "voted",
          "type": "bool"
        },
        {
          "internalType": "uint256",
          "name": "addedAt",
          "type": "uint256"
        },
        {
          "internalType": "uint256",
          "name": "updatedAt",
          "type": "uint256"
        }
      ],
      "payable": false,
      "stateMutability": "view",
      "type": "function"
    }
  ],
  "bytecode": "0x60806040526000600155600060025534801561001a57600080fd5b50600080546001600160a01b031916331790556120538061003c6000396000f3fe608060405234801561001057600080fd5b50600436106100ea5760003560e01c80635e6fef011161008c578063998d1ee011610066578063998d1ee0146105c35780639c98bcbb14610673578063a017fede14610690578063fce592871461075c576100ea565b80635e6fef011461040d5780637babffed146104e5578063997d2830146105bb576100ea565b80633b3c11fa116100c85780633b3c11fa146101da5780634129b2c9146102855780634c7992ef146102a25780635a3c213a1461035d576100ea565b806302d05d3f146100ef5780631a806ae61461011357806329bc571c1461012d575b600080fd5b6100f7610806565b604080516001600160a01b039092168252519081900360200190f35b61011b610815565b60408051918252519081900360200190f35b6101d86004803603604081101561014357600080fd5b81359190810190604081016020820135600160201b81111561016457600080fd5b82018360208201111561017657600080fd5b803590602001918460018302840111600160201b8311171561019757600080fd5b91908080601f01602080910402602001604051908101604052809392919081815260200183838082843760009201919091525092955061081b945050505050565b005b6101d8600480360360408110156101f057600080fd5b81359190810190604081016020820135600160201b81111561021157600080fd5b82018360208201111561022357600080fd5b803590602001918460018302840111600160201b8311171561024457600080fd5b91908080601f016020809104026020016040519081016040528093929190818152602001838380828437600092019190915250929550610973945050505050565b61011b6004803603602081101561029b57600080fd5b5035610be6565b6101d8600480360360c08110156102b857600080fd5b813591602081013591810190606081016040820135600160201b8111156102de57600080fd5b8201836020820111156102f057600080fd5b803590602001918460018302840111600160201b8311171561031157600080fd5b91908080601f0160208091040260200160405190810160405280939291908181526020018383808284376000920191909152509295505082359350505060208101359060400135610d5f565b6101d86004803603608081101561037357600080fd5b81359190810190604081016020820135600160201b81111561039457600080fd5b8201836020820111156103a657600080fd5b803590602001918460018302840111600160201b831117156103c757600080fd5b91908080601f016020809104026020016040519081016040528093929190818152602001838380828437600092019190915250929550508235935050506020013561114d565b61042a6004803603602081101561042357600080fd5b50356113a4565b604051808b8152602001806020018a81526020018981526020018881526020018781526020018681526020018515151515815260200184815260200183815260200182810382528b818151815260200191508051906020019080838360005b838110156104a1578181015183820152602001610489565b50505050905090810190601f1680156104ce5780820380516001836020036101000a031916815260200191505b509b50505050505050505050505060405180910390f35b610590600480360360408110156104fb57600080fd5b81359190810190604081016020820135600160201b81111561051c57600080fd5b82018360208201111561052e57600080fd5b803590602001918460018302840111600160201b8311171561054f57600080fd5b91908080601f016020809104026020016040519081016040528093929190818152602001838380828437600092019190915250929550611483945050505050565b6040805195865260208601949094529115158484015260608401526080830152519081900360a00190f35b61011b61159a565b6101d8600480360360608110156105d957600080fd5b813591602081013591810190606081016040820135600160201b8111156105ff57600080fd5b82018360208201111561061157600080fd5b803590602001918460018302840111600160201b8311171561063257600080fd5b91908080601f0160208091040260200160405190810160405280939291908181526020018383808284376000920191909152509295506115a0945050505050565b6101d86004803603602081101561068957600080fd5b5035611997565b6106b3600480360360408110156106a657600080fd5b5080359060200135611b94565b6040518089815260200180602001888152602001878152602001868152602001858152602001848152602001838152602001828103825289818151815260200191508051906020019080838360005b8381101561071a578181015183820152602001610702565b50505050905090810190601f1680156107475780820380516001836020036101000a031916815260200191505b50995050505050505050505060405180910390f35b6107796004803603602081101561077257600080fd5b5035611cef565b6040518085815260200180602001848152602001838152602001828103825285818151815260200191508051906020019080838360005b838110156107c85781810151838201526020016107b0565b50505050905090810190601f1680156107f55780820380516001836020036101000a031916815260200191505b509550505050505060405180910390f35b6000546001600160a01b031681565b60025481565b6000546001600160a01b03163314610868576040805162461bcd60e51b815260206004820152601f6024820152600080516020611f3a833981519152604482015290519081900360640190fd5b81806108a9576040805162461bcd60e51b815260206004820152601a6024820152600080516020611fd6833981519152604482015290519081900360640190fd5b600083815260046020526040902054429084141561090057600084815260046020908152604090912084516108e692600190920191860190611da2565b50600084815260046020526040902060030181905561096d565b6040805160808101825285815260208082018681528284018590526060830185905260008881526004835293909320825181559251805192939261094a9260018501920190611da2565b506040820151600280830191909155606090920151600390910155805460010190555b50505050565b6000546001600160a01b031633146109c0576040805162461bcd60e51b815260206004820152601f6024820152600080516020611f3a833981519152604482015290519081900360640190fd5b8180610a01576040805162461bcd60e51b815260206004820152601a6024820152600080516020611fd6833981519152604482015290519081900360640190fd5b60008381526003602052604090206002015442908110610a525760405162461bcd60e51b8152600401808060200182810382526025815260200180611ef16025913960400191505060405180910390fd5b6000836040516020018080602001828103825283818151815260200191508051906020019080838360005b83811015610a95578181015183820152602001610a7d565b50505050905090810190601f168015610ac25780820380516001836020036101000a031916815260200191505b5060408051601f19818403018152918152815160209283012060008b815260038452828120828252600c019093529120600101549094508414159250610b52915050576040805162461bcd60e51b815260206004820152601b60248201527f566f74696e6720746f6b656e20616c72656164792061646465642e0000000000604482015290519081900360640190fd5b6000858152600360208181526040808420600681018054835160a081018552908152808501888152818501888152606083018b8152608084018c81529a8a52600c86018852958920925183559051600180840191909155905160028301805460ff19169115159190911790559351818701559651600490970196909655989093525281540190556009909301929092555050565b60008180610c29576040805162461bcd60e51b815260206004820152601a6024820152600080516020611fd6833981519152604482015290519081900360640190fd5b60008381526003602052604090205483908114610c88576040805162461bcd60e51b815260206004820152601860248201527722b632b1ba34b7b7103237b2b9903737ba1032bc34b9ba1760411b604482015290519081900360640190fd5b60008481526003602052604090206007015460ff16610ce3576040805162461bcd60e51b815260206004820152601260248201527122b632b1ba34b7b7103737ba1037bb32b91760711b604482015290519081900360640190fd5b6000805b6000868152600360205260409020600a0154811015610d56576000868152600360209081526040808320848452600b01909152902060050154821015610d4e576000868152600360209081526040808320848452600b019091529020600501549094509050835b600101610ce7565b50505050919050565b6000546001600160a01b03163314610dac576040805162461bcd60e51b815260206004820152601f6024820152600080516020611f3a833981519152604482015290519081900360640190fd5b8580610ded576040805162461bcd60e51b815260206004820152601a6024820152600080516020611fd6833981519152604482015290519081900360640190fd5b60008781526003602052604090205487908114610e4c576040805162461bcd60e51b815260206004820152601860248201527722b632b1ba34b7b7103237b2b9903737ba1032bc34b9ba1760411b604482015290519081900360640190fd5b8680610e8d576040805162461bcd60e51b815260206004820152601a6024820152600080516020611fd6833981519152604482015290519081900360640190fd5b60008981526003602052604090206002015442908110610ede5760405162461bcd60e51b8152600401808060200182810382526025815260200180611ef16025913960400191505060405180910390fd5b6000878152600460205260409020548714610f2a5760405162461bcd60e51b8152600401808060200182810382526028815260200180611f5a6028913960400191505060405180910390fd5b6000868152600460205260409020548614610f765760405162461bcd60e51b8152600401808060200182810382526032815260200180611fa46032913960400191505060405180910390fd5b6000858152600460205260409020548514610fc25760405162461bcd60e51b8152600401808060200182810382526029815260200180611ff66029913960400191505060405180910390fd5b60008a81526003602090815260408083208c8452600b019091529020548914156110535760008a81526003602090815260408083208c8452600b0182529091208951611016926001909201918b0190611da2565b5060008a81526003602081815260408084208d8552600b019091529091206002810189905590810187905560048101869055600701819055611141565b60008a8152600360209081526040808320600a8101805460018181018355918652848620018e90558251610100810184528e81528085018e81528185018e9052606082018d9052608082018c905260a0820187905260c0820188905260e082018890528f8752600b9093018552929094208251815590518051929491936110e09392850192910190611da2565b50604082810151600283015560608301516003808401919091556080840151600484015560a084015160058085019190915560c0850151600685015560e09094015160079093019290925560008d8152602092909252902001805460010190555b50505050505050505050565b6000546001600160a01b0316331461119a576040805162461bcd60e51b815260206004820152601f6024820152600080516020611f3a833981519152604482015290519081900360640190fd5b83806111db576040805162461bcd60e51b815260206004820152601a6024820152600080516020611fd6833981519152604482015290519081900360640190fd5b60008581526003602052604090205442908614156112915760008681526003602052604090206002015481106112425760405162461bcd60e51b8152600401808060200182810382526025815260200180611ef16025913960400191505060405180910390fd5b6000868152600360209081526040909120865161126792600190920191880190611da2565b5060008681526003602081905260409091206002810186905590810184905560090181905561139c565b60408051610160810182528781526020808201888152828401889052606083810188905260006080850181905260a0850181905260c0850181905260e085018190526101008501879052610120850187905261014085018290528b815260038452949094208351815590518051919261131292600185019290910190611da2565b5060408201516002820155606082015160038201556080820151600482015560a0820151600582015560c0820151600682015560e082015160078201805460ff191691151591909117905561010082015160088201556101208201516009820155610140820151805161138f91600a840191602090910190611e20565b5050600180548101905550505b505050505050565b6003602090815260009182526040918290208054600180830180548651600293821615610100026000190190911692909204601f8101869004860283018601909652858252919492939092908301828280156114415780601f1061141657610100808354040283529160200191611441565b820191906000526020600020905b81548152906001019060200180831161142457829003601f168201915b5050505060028301546003840154600485015460058601546006870154600788015460088901546009909901549798959794965092949193909260ff1691908a565b6000806000806000611493611e5a565b60036000898152602001908152602001600020600c016000886040516020018080602001828103825283818151815260200191508051906020019080838360005b838110156114ec5781810151838201526020016114d4565b50505050905090810190601f1680156115195780820380516001836020036101000a031916815260200191505b5060408051808303601f190181529181528151602092830120865285820196909652938501600020855160a08101875281548082526001830154968201879052600283015460ff16151597820188905260038301546060830181905260049093015460809092018290529f959e50959c509a50939850919650505050505050565b60015481565b82806115e1576040805162461bcd60e51b815260206004820152601a6024820152600080516020611fd6833981519152604482015290519081900360640190fd5b8280611622576040805162461bcd60e51b815260206004820152601a6024820152600080516020611fd6833981519152604482015290519081900360640190fd5b60008581526003602052604090205485908114611681576040805162461bcd60e51b815260206004820152601860248201527722b632b1ba34b7b7103237b2b9903737ba1032bc34b9ba1760411b604482015290519081900360640190fd5b600086815260036020526040902060020154429081108015906116b65750600087815260036020819052604090912001548111155b611707576040805162461bcd60e51b815260206004820152601a60248201527f4e6f74207468652074696d6520746f206361737420766f746573000000000000604482015290519081900360640190fd5b6000856040516020018080602001828103825283818151815260200191508051906020019080838360005b8381101561174a578181015183820152602001611732565b50505050905090810190601f1680156117775780820380516001836020036101000a031916815260200191505b5060408051601f19818403018152918152815160209283012060008e815260038452828120828252600c0190935291206001015490945084149250611806915050576040805162461bcd60e51b815260206004820152601c60248201527f566f74696e6720746f6b656e20646f6573206e6f742065786973742e00000000604482015290519081900360640190fd5b6000888152600360209081526040808320848452600c0190915290206002015460ff16156118655760405162461bcd60e51b8152600401808060200182810382526022815260200180611f826022913960400191505060405180910390fd5b60008881526003602090815260408083208a8452600b0190915290205487146118cc576040805162461bcd60e51b81526020600482015260146024820152732a32b0b6903237b2b9903737ba1032bc34b9ba1760611b604482015290519081900360640190fd5b6000888152600360208181526040808420858552600c810183528185208c815560028101805460ff1916600190811790915560049182018990558d8752600b830185528387206005810180548301815560079091018a9055918301805490910190819055600990920188905554948d905292825280518c81529182018b90528181019390935260608101919091526080810184905290517f52d5c01ece1a2c78d4c9854554a1fe8a1c5f98f759107e2f3bee72d02a16fcd59181900360a00190a15050505050505050565b6000546001600160a01b031633146119e4576040805162461bcd60e51b815260206004820152601f6024820152600080516020611f3a833981519152604482015290519081900360640190fd5b8080611a25576040805162461bcd60e51b815260206004820152601a6024820152600080516020611fd6833981519152604482015290519081900360640190fd5b60008281526003602052604090205482908114611a84576040805162461bcd60e51b815260206004820152601860248201527722b632b1ba34b7b7103237b2b9903737ba1032bc34b9ba1760411b604482015290519081900360640190fd5b600083815260036020819052604090912001544211611adf576040805162461bcd60e51b815260206004820152601260248201527122b632b1ba34b7b7103737ba1037bb32b91760711b604482015290519081900360640190fd5b60008381526003602052604090206007015460ff1615611b305760405162461bcd60e51b8152600401808060200182810382526024815260200180611f166024913960400191505060405180910390fd5b6000838152600360205260409020600701805460ff191660011790557f32e2c12037f9600b91a766ce53eab6909f3bdb865851cd9a8c7fafbdf249a9ce83611b7781610be6565b6040805192835260208301919091528051918290030190a1505050565b60006060600080600080600080611ba9611e8e565b60008b81526003602090815260408083208d8452600b018252918290208251610100808201855282548252600180840180548751600293821615909402600019011691909104601f8101869004860283018601909652858252919492938581019391929190830182828015611c5f5780601f10611c3457610100808354040283529160200191611c5f565b820191906000526020600020905b815481529060010190602001808311611c4257829003601f168201915b5050505050815260200160028201548152602001600382015481526020016004820154815260200160058201548152602001600682015481526020016007820154815250509050806000015181602001518260400151836060015184608001518560a001518660c001518760e0015186965098509850985098509850985098509850509295985092959890939650565b6004602090815260009182526040918290208054600180830180548651600293821615610100026000190190911692909204601f810186900486028301860190965285825291949293909290830182828015611d8c5780601f10611d6157610100808354040283529160200191611d8c565b820191906000526020600020905b815481529060010190602001808311611d6f57829003601f168201915b5050505050908060020154908060030154905084565b828054600181600116156101000203166002900490600052602060002090601f016020900481019282601f10611de357805160ff1916838001178555611e10565b82800160010185558215611e10579182015b82811115611e10578251825591602001919060010190611df5565b50611e1c929150611ed3565b5090565b828054828255906000526020600020908101928215611e105791602002820182811115611e10578251825591602001919060010190611df5565b6040518060a00160405280600081526020016000801916815260200160001515815260200160008152602001600081525090565b60405180610100016040528060008152602001606081526020016000815260200160008152602001600081526020016000815260200160008152602001600081525090565b611eed91905b80821115611e1c5760008155600101611ed9565b9056fe456c656374696f6e20686173206569746865722073746172746564206f7220656e6465642e656e64456c656374696f6e2068617320616c7265616479206265656e2063616c6c65642e4f6e6c79207468652043726561746f722063616e2063616c6c20746869732e0043686169726d616e494420646f6573206e6f7420657869737420696e206f7572207265636f726473566f7465722068617320616c7265616479206361737420746865697220766f74652e5365637265746172792047656e6572616c20494420646f6573206e6f7420657869737420696e206f7572207265636f7264734944732073686f756c64206e6f7420657175616c207a65726f2e000000000000547265617375726572494420646f6573206e6f7420657869737420696e206f7572207265636f726473a265627a7a72315820aaf09a3a73c394461bf1c897e07b71a28363e136759fb1be39a16f909c04ba5264736f6c63430005100032",
  "source": "pragma solidity >=0.4.21 <0.7.0;\n\ncontract Voting {\n    address public creator;\n    uint public electionCount = 0;\n    uint public aspirantCount = 0;\n\n    struct Election {\n        uint electionId;\n        string name;\n        uint start_timestamp;\n        uint end_timestamp;\n        uint voteCount;\n        uint teamCount;\n        uint tokenCount;\n        bool ended;\n        uint addedAt;\n        uint updatedAt;\n        uint[] teamIds; // apparently, you can't loop over mappings or their keys\n        mapping(uint => Team) teams;\n        mapping(bytes32 => Ballot) votingTokens;\n    }\n\n    struct Aspirant {\n        uint aspirantId;\n        string name;\n        uint addedAt;\n        uint updatedAt;\n    }\n\n    struct Team {\n        uint teamId;\n        string name;\n        uint chairmanId;\n        uint secGenId;\n        uint treasurerId;\n        uint votes;\n        uint addedAt;\n        uint updatedAt;\n    }\n\n    struct Ballot {\n        uint teamId;\n        bytes32 votingToken; // a hash of the actual voting token\n        bool cast;\n        uint addedAt;\n        uint updatedAt;\n    }\n\n    mapping(uint => Election) public elections;\n    mapping(uint => Aspirant) public aspirants;\n\n    event Cast(uint _electionId, uint _teamId, uint teamCount, uint totalCount, uint castAt);\n    event ElectionEnded(uint _electionId, uint _winningTeamId);\n\n    modifier onlyCreator() {\n        require(msg.sender == creator, \"Only the Creator can call this.\");\n        _;\n    }\n\n    modifier notZero(uint _n) {\n        require(_n != 0, \"IDs should not equal zero.\");\n        _;\n    }\n\n    modifier electionExists(uint _electionId) {\n        require(elections[_electionId].electionId == _electionId, \"Election does not exist.\");\n        _;\n    }\n\n\n    constructor() public {\n        creator = msg.sender;\n    }\n\n    function setElection(uint _electionId, string memory _name, uint _start_timestamp, uint _end_timestamp)\n    public\n    onlyCreator()\n    notZero(_electionId)\n    {\n        uint time = now;\n        if (elections[_electionId].electionId == _electionId) {\n            require(time < elections[_electionId].start_timestamp, \"Election has either started or ended.\");\n            elections[_electionId].name = _name;\n            elections[_electionId].start_timestamp = _start_timestamp;\n            elections[_electionId].end_timestamp = _end_timestamp;\n            elections[_electionId].updatedAt = time;\n        } else {\n            uint[] memory teamIds;\n            elections[_electionId] = Election(_electionId, _name, _start_timestamp, _end_timestamp, 0, 0, 0, false, time, time, teamIds);\n            electionCount++;\n        }\n    }\n\n    function setAspirant(uint _aspirantId, string memory _name)\n    public\n    onlyCreator()\n    notZero(_aspirantId)\n    {\n        uint time = now;\n        if (aspirants[_aspirantId].aspirantId == _aspirantId) {\n            aspirants[_aspirantId].name = _name;\n            aspirants[_aspirantId].updatedAt = time;\n        } else {\n            aspirants[_aspirantId] = Aspirant(_aspirantId, _name, time, time);\n            aspirantCount++;\n        }\n    }\n\n    function setTeam(uint _electionId, uint _teamId, string memory _name, uint _chairmanId, uint _secGenId, uint _treasurerId)\n    public\n    onlyCreator()\n    notZero(_electionId)\n    electionExists(_electionId)\n    notZero(_teamId)\n    {\n        uint time = now;\n        require(time < elections[_electionId].start_timestamp, \"Election has either started or ended.\");\n        require(aspirants[_chairmanId].aspirantId == _chairmanId, \"ChairmanID does not exist in our records\");\n        require(aspirants[_secGenId].aspirantId == _secGenId, \"Secretary General ID does not exist in our records\");\n        require(aspirants[_treasurerId].aspirantId == _treasurerId, \"TreasurerID does not exist in our records\");\n        if (elections[_electionId].teams[_teamId].teamId == _teamId) {\n            elections[_electionId].teams[_teamId].name = _name;\n            elections[_electionId].teams[_teamId].chairmanId = _chairmanId;\n            elections[_electionId].teams[_teamId].secGenId = _secGenId;\n            elections[_electionId].teams[_teamId].treasurerId = _treasurerId;\n            elections[_electionId].teams[_teamId].updatedAt = time;\n        } else {\n            elections[_electionId].teamIds.push(_teamId);\n            elections[_electionId].teams[_teamId] = Team(_teamId, _name, _chairmanId, _secGenId, _treasurerId, 0, time, time);\n            elections[_electionId].teamCount++;\n        }\n    }\n\n    function setVotingToken(uint _electionId, string memory _token)\n    public\n    onlyCreator()\n    notZero(_electionId)\n    {\n        uint time = now;\n        require(time < elections[_electionId].start_timestamp, \"Election has either started or ended.\");\n        bytes32 _hashedToken = keccak256(abi.encode(_token));\n        require(elections[_electionId].votingTokens[_hashedToken].votingToken != _hashedToken, \"Voting token already added.\");\n        uint tokenCount = elections[_electionId].tokenCount;\n        elections[_electionId].votingTokens[_hashedToken] = Ballot(tokenCount, _hashedToken, false, time, time);\n        elections[_electionId].tokenCount++;\n        elections[_electionId].updatedAt = time;\n    }\n\n    function cast(uint _electionId, uint _teamId, string memory _votingToken)\n    public\n    notZero(_electionId)\n    notZero(_teamId)\n    electionExists(_electionId)\n    {\n        uint time = now;\n        require(time >= elections[_electionId].start_timestamp && time <= elections[_electionId].end_timestamp, \"Not the time to cast votes\");\n        bytes32 _hashedToken = keccak256(abi.encode(_votingToken));\n        require(elections[_electionId].votingTokens[_hashedToken].votingToken == _hashedToken, \"Voting token does not exist.\");\n        require(!elections[_electionId].votingTokens[_hashedToken].cast, \"Voter has already cast their vote.\");\n        require(elections[_electionId].teams[_teamId].teamId == _teamId, \"Team does not exist.\");\n\n        // register the vote\n        elections[_electionId].votingTokens[_hashedToken].teamId = _teamId;\n        elections[_electionId].votingTokens[_hashedToken].cast = true;\n        elections[_electionId].votingTokens[_hashedToken].updatedAt = time;\n        elections[_electionId].teams[_teamId].votes++;\n        elections[_electionId].teams[_teamId].updatedAt = time;\n        elections[_electionId].voteCount++;\n        elections[_electionId].updatedAt = time;\n        emit Cast(_electionId, _teamId, elections[_electionId].teams[_teamId].votes,  elections[_electionId].voteCount, time);\n    }\n\n    function endElection(uint _electionId)\n    public\n    onlyCreator()\n    notZero(_electionId)\n    electionExists(_electionId)\n    {\n        require(now > elections[_electionId].end_timestamp, \"Election not over.\");\n        require(!elections[_electionId].ended, \"endElection has already been called.\");\n        elections[_electionId].ended = true;\n        emit ElectionEnded(_electionId, getWinner(_electionId));\n    }\n\n    function getWinner(uint _electionId)\n    public\n    notZero(_electionId)\n    electionExists(_electionId)\n    view returns (uint _winningTeamId)\n    {\n        require(elections[_electionId].ended, \"Election not over.\");\n        uint winningVoteCount = 0;\n        for (uint _teamId = 0; _teamId < elections[_electionId].teamIds.length; _teamId++) {\n            if (elections[_electionId].teams[_teamId].votes > winningVoteCount) {\n                winningVoteCount = elections[_electionId].teams[_teamId].votes;\n                _winningTeamId = _teamId;\n            }\n        }\n    }\n\n    function getTeam(uint _electionId, uint _teamId)\n    public\n    view returns (uint teamId, string memory name, uint chairmanId, uint secGenId, uint treasurerId, uint votes, uint addedAt, uint updatedAt)\n    {\n        Team memory t = elections[_electionId].teams[_teamId];\n        return (t.teamId, t.name, t.chairmanId, t.secGenId, t.treasurerId, t.votes, t.addedAt, t.updatedAt);\n    }\n\n    function getBallot(uint _electionId, string memory _token)\n    public\n    view returns (uint teamId, bytes32 votingToken, bool voted, uint addedAt, uint updatedAt)\n    {\n        Ballot memory b = elections[_electionId].votingTokens[keccak256(abi.encode(_token))];\n        return (b.teamId, b.votingToken, b.cast, b.addedAt, b.updatedAt);\n    }\n}\n",
  "sourcePath": "/home/stephen/Projects/todo/contracts/Voting.sol",
  "compiler": {
    "name": "solc",
    "version": "0.5.16+commit.9c3226ce.Emscripten.clang"
  },
  "schemaVersion": "3.0.23",
  "updatedAt": "2020-03-26T09:07:07.845Z",
  "networkType": "ethereum",
  "devdoc": {
    "methods": {}
  },
  "userdoc": {
    "methods": {}
  }
}